:020000042000DA
:1000000000980020A1040020A9040020C1040020C1
:1000100000000000000000000000000000000000E0
:10002000000000000000000000000000D9040020D3
:100030000000000000000000F1040020F304002094
:10004000EF230020053103000D3103005F24002061
:10005000712400208D310300AB240020B324002044
:10006000F5040020F5040020CB240020AD3103006E
:1000700005180020091B0020F5040020F5040020CD
:10008000F5040020F5040020F50400200D160020E2
:100090001116002015160020191600201D1600202C
:020000042000DA
:1001600032000000510600205B0F0020D92500203E
:10017000000000000000000063800200BD8002005B
:10018000550D0020FB80020019810200358102001C
:100190005D810200C123002037060020410D0020B0
:1001A0004B0D002000000000000000003F00000098
:1001B000F4850020000A0000680D0800900200008D
:1001C00068070800F405000004100800000800009B
:1001D000000000002000000048000000580000005F
:1001E0006800000004010000160100002801000062
:1001F0002E010000202A00008E2E000001000000C9
:1002000088130000E50F0020E9600200FD93020062
:10021000EB1B002019280300A574020041220020D6
:1002200003000000D5200200E125002004000000AA
:10023000D74902000F490200831D020063910200AA
:10024000B7910200BF910200078202007182020092
:10025000143C0020AD83020093840200418502001B
:1002600015860200378602005F860200758602004E
:10027000F9870200258902005D8A0200D38C020002
:10028000098D02000F900200438D0200278E0200AC
:10029000F98E0200478F0200C70C0020D58F0200A4
:1002A00049510200775102002F5202001000000055
:1002B00020030000803E000000000000000000005D
:020000042000DA
:1002C000504600030003983A6400F401B80B000C98
:1002D000B80B120030003000CD009A01120024004B
:1002E00030006400B0001800280012001200D0078F
:1002F0000000FFFF00000000000000000000000000
:100300001F000002444131343538302D30310000B7
:1003100000000000000000000000000000000000DD
:0403200000000000D9
:020000042000DA
:10034000FFFF010000C201000000000000000000EB
:100350000000F4010100011B0A071AFFD200021578
:10036000585CDE931B0142CC9A1325009BEDC65EC0
:1003700000010002C5000000000009FF00605257A4
:100380002D424C450000000000000000000000006D
:100390000000000000000000000044413134353806
:1003A000300000000000000000000000000000001D
:1003B000000000000000000000000000000000003D
:1003C000000000000000000000000000000000002D
:1003D0000000000000000000010000CAEA80D00711
:0403E000064064323D
:020000042000DA
:100440000348854603F06EF900480047C7200200C4
:10045000009800200E4906200880FF200D49013039
:1004600008600D4988683E2290432E308860002243
:10047000052000070280018A0F231B021943018215
:1004800001210648C90404C1401EFCD562B670476C
:100490000034005080E100E000330050FF0B00000A
:1004A000154880471548004704207146084203D08C
:1004B000EFF3098012490847EFF308801049084715
:1004C00004207146084203D0EFF309800D49084724
:1004D000EFF308800B49084704207146084203D017
:1004E000EFF3098008490847EFF3088006490847F9
:1004F000FEE7FEE7FEE7000055040020410400206F
:10050000610A00200D050020BF050020052212070A
:10051000518A802319435182124903680B60436852
:100520004B6083688B60C368CB6003690B61436970
:100530004B6183698B61C369CB6108620A48836A36
:100540004B62C36A8B62036BCB62C36B0B63436BFF
:100550004B63806B8863908A800601D500BE70472C
:10056000FEE700000018080000ED00E08307FF220E
:10057000DB0E9A408907090E994000280BDA000724
:10058000000F08388308CD489B001B18D86990439A
:100590000843D86170478308C9489B001B18186836
:1005A000904308431860704702890889C549101AAA
:1005B00080B2884201D901207047002070478169CC
:1005C0002039897F082904D2BF4A890051588161A6
:1005D0007047FEE710B5BE48BC490161BD494161A5
:1005E000BD498161BD49C161BD490162BD494162E9
:1005F000BD498162BD49C162BD490163BD494163D5
:10060000BD498163BD49C163BB49B1485C314030DC
:100610000160BB494160BB498160BB49C160C816EC
:100620000124BA49E4060C600021FFF79FFFB74898
:100630008038046010BD10B5B5490020086000F096
:100640003DFB01208007016B49004908016310BD93
:100650001CB5B04901200870AF4908200880052466
:1006600024076088AD4E0425002823D1708801211D
:100670000843708000200190401C01901428FBDB8F
:10068000608980088000401C608160894006FCD53C
:10069000608928436081A24860806089A8436081A6
:1006A000A08A0006FCD5608980088000608160898E
:1006B0000006FCD503F048F800F026FD00F052FAE1
:1006C000984801780170984801780170012003F082
:1006D00041F8FF2701370D203946800103F040F82B
:1006E00001F0CAFD00F0A2FB00F062FA042000F065
:1006F000DDF8072000F0DAF80A2000F0D7F806202D
:1007000000F0D4F80B2000F0D1F8012000F0CEF872
:10071000022000F0CBF8002000F0C8F88348006801
:1007200003F024F8B80501683943016000F01DF9B1
:100730000121C81EFFF71AFF02F0CAF9FFF77BFF7D
:10074000A220E08275484188E0229143A031418097
:10075000012003F011F80226208900061AD5012095
:100760008007006B000415D403F00CF8C00711D10A
:10077000042003F00DF8074603F010F8002F09D00D
:1007800000200190042101A803F00EF8002801D0F8
:1007900000F0A7FA664F3878002807D0654800783F
:1007A000002801D100F0D9FF0020387002F0CAFC07
:1007B00072B602F06CFD01F085FD694608700428F0
:1007C00006D002280CD003280AD001286BD06BE099
:1007D00059480078012802D00320087000E00E700C
:1007E000208A284320825548C0690128087811D9F9
:1007F000032845D102F0DEFF002841D002F0E0FFDF
:1008000000283DD0032002F0E1FF002838D04C48FA
:10081000067008E0032833D102F0D8FF00282FD05B
:100820004749012008702548016929430161618A0F
:10083000202291436182218A3143218269460A78CC
:10084000618A022A1ED0294361827F21238889017F
:1008500080273B43238000235B1CDBB20A2BFBD3A6
:10086000638A10273B436382364B491E59612188B6
:10087000802399432180022A0AD0032A08D00DE060
:100880006846C5E729436182618A102291436182EB
:1008900022494A88FF2301339A434A8030BF0169C5
:1008A000A943016100E030BF62B655E7C106C90E39
:1008B00001208840244908607047000000ED00E0F6
:1008C00000E400E030750000F43B002094270300B2
:1008D0000084004062B600DF28A30200704701DFF9
:1008E0001CCA0200F8BD02DF40CB0200F5E703DFBF
:1008F00084D4020004DF89B0BC330200F8BD05DFF8
:10090000F8BD06DFEC0C030070BD07DF80E100E0FE
:100910008C030800008000200033005020000050AD
:100920001605000000000800202A0800049000209E
:1009300076800020E880002054020800E0010020BA
:10094000C40608000080004080E200E0704700001C
:100950003E480178002902D08021417070473C490F
:10096000002008703B49C87070473848017800295A
:1009700002D0812141707047354901200870354906
:10098000C870704731480178002902D08221417037
:1009900070472F49022008702E490120C870704707
:1009A0002A488178002904D0491E0906090E817061
:1009B00017D142780021002A04D09207920F0270CA
:1009C000417004E00278002A01D0521E0270120623
:1009D000120E017005D0012A02D0022A01D1D1E7FE
:1009E000C3E7704710B5194CA078401CA070207860
:1009F000002805D102F0F0FE421CFFF7A9FF22708B
:100A000010BD12490120C870704710490020C870FD
:100A100070470E48C07870470020EFF31081012224
:100A200082F31088052212071289120605D40A489B
:100A3000028901231A4302811846002900D00121AE
:100A400081F31088704705480078704701800020C6
:100A500054020800C60608000033005068800020D9
:100A600005221207118A042319431182118A0223D5
:100A7000194311821189402319431181184B012117
:100A80001960184B08211980518A8023194351821B
:100A9000154903680B6143684B6183688B61C368C8
:100AA000CB6103690B6243694B6283698B62C369E3
:100AB000CB6208630D48836A4B63C36A8B63036B25
:100AC000CB63C36B084940310B60436B4B60806B59
:100AD0008860908A800601D500BE7047FEE700005E
:100AE00080E200E0003300504018080000ED00E014
:100AF00070B52B4B00261869F643002801D030460C
:100B000000E00120C117020F090111430201186121
:100B100024480468456822432943026041605969BA
:100B2000002900D10126F117F20E49015E6111433F
:100B3000046872014368224319430260416070BD3A
:100B400038B5002403220223120204212046009417
:100B500000F07DFB01231A0205210020009400F023
:100B600076FB38BD10B505242407208A022188436E
:100B70002082A08A0007FCD5FFF72CFDFFF7E0FFDD
:100B8000A08880210843A0800321092000F0B6FD41
:100B9000608A20210843608202F035FB10BD00000E
:100BA0002890002020900020934900204860704742
:100BB00070B5052000070189302291430181018928
:100BC000802211430181018989088900491C018122
:100BD000018908231943018188490C8814430C803A
:100BE000448A9C4344820589402425430581058A23
:100BF0000426B5430582858AAD07FCD57E4E0025C7
:100C000075600D88012635430D804D89AE057C4DFC
:100C10000E8801D52E4300E0AE430E800D88782665
:100C2000B54328350D800D88062635430D80458A4D
:100C30001D4345820B8893430B800289A2430281A6
:100C40004889800503D56D490520603188800120E1
:100C5000800701688215914301606A4801683F225C
:100C60005202914342148918016001680203114342
:100C7000016070BD0520000701883022114301800A
:100C80000188032211430180704705200007018875
:100C900030229143018001888908890001807047D2
:100CA0000321594809028181082242800021491C00
:100CB0009629FCD3828070477047704710B553481F
:100CC00002F090FD10BD70B54C4C6088C006050F59
:100CD00002F08EFD61881E2291436A0011436180FB
:100CE00070BD10B54A490120C863C86B0028FCD10B
:100CF00001208007C16947480268914201D2002261
:100D0000026019238A1ADB019A4212D3016002F0B1
:100D100075FD414A1188884201D9411A00E0091A3B
:100D200089B2182905D31080012002F06DFD02F070
:100D300071FD10BD08B5009808BD08B5009808BD44
:100D400008B502F06DFD009008BD08B502F06EFD1B
:100D5000009008BD08B5314901204A695206D20FFA
:100D600013D04A699206D20F0FD000220A61009276
:100D7000FF225F32009B5B1C00939342FAD34969C8
:100D8000C907C90F02D002F057FD002008BD401866
:100D90003721C00009014018704710B5204A0020D3
:100DA000117800290DD01A490120C863C86B0028AA
:100DB000FCD101208007C0691A490968884201D224
:100DC000012010BD0020107002F006FD022803D0A3
:100DD00002F002FD01280BD11349082008800520EC
:100DE0000007818A8906FCD4418A8022914341828E
:100DF000002010BD00207047088000202000005017
:100E00000010000000020040203000507D12000061
:100E1000C00000407C040800780408000010005066
:100E200000800020A03D00200033005030B58B4AE8
:100E30008B49D005048880231C430480894C658934
:100E40002D0701D4521EFAD2874C01222260874C12
:100E50000A882280864A4988118001889943018046
:100E600030BD0020704770477047704700207047C2
:100E700001218907086B07221043086370477047F8
:100E800010B57D497B4808607C494C2008807B4B2D
:100E90007B4A203B1A827C497A4848807C487B49BF
:100EA00001807A49193141802221418181218900C3
:100EB0000182784941827849018376491131418321
:100EC0007349764820318880412175480901818025
:100ED0007449C180734C1034C48101824182891CE1
:100EE0008182611FC182FF21463101836E494183A6
:100EF0006E49592008806D486D4C20300480432491
:100F000044806C4C4C82D5218180FF21D3310181FA
:100F100069494181694981816A496948088057481E
:100F2000694960384180C18810242143C1806049EB
:100F30000A390181514C6549403C61805A8208213F
:100F400041814B48594900884039088247486049E7
:100F50000088088010BD4008704700B58BB05D4A1E
:100F600042625D4A82625D4A42615D4AC2625D4A96
:100F700002605D4A02625D4A42605D4AC2613E4A69
:100F80003C48002110603C484038026B03129A43F1
:100F90000263426B1F231B049A4303231B04D218D2
:100FA000426354480268C3129A4302600268031302
:100FB0009A43026068464154491CC9B22829FAD3B1
:100FC000014628224C4802F03DFCFFF759FF02F091
:100FD00015FC4A490880002002F016FC02F01AFCB9
:100FE0000BB000BD10B5244A0F2122480902106041
:100FF00021484038426B1F231B049A4303231B04E0
:10100000D218426300060268D208D20002600520AE
:101010000007028992089200521C0281028908236B
:101020001A430281028A0A4302820E4841898905D5
:1010300004D501887822914308310180FFF720FF11
:101040002F48006B0078002804D02E4800880B49F8
:101050006039C880012002F08FFB10BDA08601001E
:10106000087F040020000050008000405602080065
:101070004A0308004C05540780000040602C0050D3
:101080007F7F0000AC290000002200500909000009
:10109000002400502204000030D00000EE110000B7
:1010A000002500502E02000044200000402800507F
:1010B0000D95000002420000E4DC000010920000E8
:1010C00053780000002A00508B1000009DD50000CE
:1010D00000260050630E0020670E00206D0E0020D9
:1010E000710E0020690E00207F0E00206B0E002084
:1010F000570F00200002004020000800780408007C
:101100002002002052040800FEB50020FE4E0346D7
:1011100028220021424392198C00491C13510A29AC
:10112000FADB401C0428F3DBFFF7E2FCF648002260
:1011300008380260426015460024F4486900475AA6
:101140000120A04080B207421CD0282068438019AB
:10115000A1004058411C19D0002810D0C1172246C8
:1011600002F076FB2A0102F073FBE74B083B1A689A
:101170005B681043E44A1943083A10605160641CEC
:101180000A2CDDDB6D1C042DD6DBFEBD0095019421
:1011900000BEE3E7F8B5164604460D460A461F466C
:1011A0000120002102F054FB220102F051FBD64B3A
:1011B000083B1A685B6810401940084300D100BE24
:1011C000032C00D10424D24960014018690008189A
:1011D0003E43C680F8BD70B504460D460A46012060
:1011E000002102F035FB220102F032FBC64A083A28
:1011F0001368526818401140084300D100BE032C08
:1012000000D10424C249600140180121A940818015
:1012100070BD70B504460D460A460120002102F05B
:1012200017FB220102F014FBB74A083A1368526810
:1012300018401140084300D100BE032C00D1042403
:10124000B349600140180121A940418070BDFFB53C
:1012500081B00C4605460A461F46012000210A9E21
:1012600002F0F6FA2A0102F0F3FAA74B083B1A68DB
:101270005B6810401940084300D100BE002E214693
:10128000284602D0FFF7C5FF01E0FFF7A4FF3B4669
:1012900021462846039AFFF77DFF05B0F0BD70B5E3
:1012A00004460D460A460120002102F0D1FA22012F
:1012B00002F0CEFA944A083A136852681840114076
:1012C000084300D100BE032C00D1042490496001E2
:1012D000401800880121A940084000D0012070BDBD
:1012E000FFB514460D4606460A4681B0012000218E
:1012F00002F0AEFA320102F0ABFA834B083B1A68F7
:101300005B6810401940084300D100BE81A000680E
:1013100000908148838920461338FF2201328240A1
:101320000B999343002901D0012700E00027D10742
:1013300001D0002138E0910701D5012134E05107A7
:1013400001D5022130E0110701D503212CE0D1069F
:1013500001D5042128E0910601D5052124E051069C
:1013600001D5062120E0110601D507211CE0D10599
:1013700001D5082118E0910501D5092114E0510596
:1013800001D50A2110E0110501D50B210CE0D10493
:1013900001D50C2108E0910401D50D2104E0510490
:1013A00001D50E2100E00F218F405B493B438B812B
:1013B0008B890B9F9B099B013B438B810B8A93433A
:1013C000D70701D0002238E0970701D5012234E089
:1013D000570701D5022230E0170701D503222CE080
:1013E000D70601D5042228E0970601D5052224E07E
:1013F000570601D5062220E0170601D507221CE07A
:10140000D70501D5082218E0970501D5092214E077
:10141000570501D50A2210E0170501D50B220CE073
:10142000D70401D50C2208E0970401D50D2204E071
:10143000520401D50E2200E00F220A9F97403B4341
:101440000B820B8A02460127384690408343C2072D
:1014500001D0002238E0820701D5012234E04207A2
:1014600001D5022230E0020701D503222CE0C2069A
:1014700001D5042228E0820601D5052224E0420697
:1014800001D5062220E0020601D507221CE0C20594
:1014900001D5082218E0820501D5092214E0420591
:1014A00001D50A2210E0020501D50B220CE0C2048E
:1014B00001D50C2208E0820401D50D2204E040048D
:1014C00001D50E2200E00F220498904003430B82C6
:1014D0001148610040380818418B6A468909925DBD
:1014E0008901521911434183A007C20EFF21914087
:1014F00080209040002C18DA2207120F083A930837
:10150000064A9B009B180BE0289000202A3C0020F4
:101510000030005001090F190014005000ED00E0E8
:10152000DA698A430243DA6107E0A3083C4A9B0078
:101530009B181A688A4302431A60E006C00E87406F
:1015400038480760A9E610B5374CE3890122133803
:10155000114681408B43C80701D0002038E088073E
:1015600001D5012034E0480701D5022030E008070A
:1015700001D503202CE0C80601D5042028E0880608
:1015800001D5052024E0480601D5062020E0080604
:1015900001D507201CE0C80501D5082018E0880502
:1015A00001D5092014E0480501D50A2010E00805FE
:1015B00001D50B200CE0C80401D50C2008E08804FC
:1015C00001D50D2004E0480401D50E2000E00F20D5
:1015D00082401343E38110BD144A80008018803894
:1015E0004163704710B50446FFF7ADFF0F49A000F7
:1015F00040188038406B002801D0804710BDE106BC
:10160000C90E012088400A49086010BD1320E9E78F
:101610001420E7E71520E5E71620E3E71720E1E7C8
:1016200000E400E000E100E000140050C890002059
:1016300080E200E0F0B4CB48C94D0022C8496035D3
:10164000836818E01C78002C04D0022C0BD0012CED
:101650000BD0FEE746683478761C0C600468466060
:10166000641E046003E0132400E011240C601A706F
:101670000468002C05D0AC8BA407E40FE2D1F0BCC9
:10168000704742604B680224A3434B60C168002945
:10169000F5D0C260F0BC00200847B1484069C007DF
:1016A000C00F01D00020704701207047AC492220B4
:1016B0000861704700B5AA49012248694006C00F79
:1016C00016D048698006C00F12D0FFF7E6FF002849
:1016D0000ED00869022398430861FF238733022054
:1016E000401C9842FCDBFFF7D8FF002803D000E045
:1016F0000022104600BD22200861F9E730B4984A64
:1017000093898024A34393818723138100239380AB
:10171000958925439581938093801080918190894C
:10172000A043908190486101016090480268402484
:10173000120A1202224302608B48803801608C48F2
:101740000160884820300370203843618361036161
:1017500043608360036030BCACE7814911200860BE
:10176000704700B57E4A012150694006C00F14D071
:1017700050698006C00F10D0FFF78FFF00280CD0F3
:1017800013201060FF2387330220401C9842FCDBAB
:10179000FFF783FF002803D000E00021084600BDCA
:1017A00011201060F9E76E4801690222914301613E
:1017B00070476C48006870476948A0210161416921
:1017C0008906C90FFBD041694906C90FF7D0704798
:1017D00010B5644CE361A261216160616048012140
:1017E00042688A430A43426010BD10B55D4CE36015
:1017F000A26021605A496060486802229043104309
:10180000486010BD10B5564881680907090F0129C5
:101810001FD0022921D004291CD00C2919D15149EB
:1018200020310978012912D141690906C90F0ED06A
:101830004C4900220A614A6183885B085B0083800F
:10184000CB69002B03D0CA6100210120984700F02A
:1018500029F810BD00F053F810BDFFF7EBFE10BDE6
:1018600000B53F4841694906C90F09D04069800663
:10187000C00F05D0FFF711FF002801D0002000BDE8
:10188000012000BD36498A8A9206FCD5088070473F
:1018900000B5034602E0FFF7F5FF5B1C187800284F
:1018A000F9D100BDF8B50026324F2E4C2C4D0EE07C
:1018B0002868C0B23870112817D0132819D0616970
:1018C00008702069491C401E6161761C20616869AE
:1018D000C007C00FECD16169087060612061E269E6
:1018E000E061314602209047F8BDA16901200870EF
:1018F000EDE7A1690220087001F041FCE7E7F8B5C7
:1019000000251C4F174C164E11E03068C0B23870DD
:10191000112811D0132813D0616908702069491C5F
:10192000401E61616D1C2061206900280ED0706925
:10193000C007C00FE9D1F8BDA16901200870F3E725
:10194000A1690220087001F01AFCEDE70020606137
:10195000E269002AEFD02946E0619047F8BD000017
:10196000001000501C80002080E100E00CE400E04A
:1019700080E200E0DC90002030B4724C7149724883
:10198000603408E043681A785B1C0A6002684360B0
:10199000521E026005D0A28B9207D20FF2D130BC4A
:1019A0007047002242604B680224A3434B60816869
:1019B0000029F4D0826030BC0020084730B5614A6D
:1019C00093898024A3439381072313810023938069
:1019D000958925439581938093801080918190898A
:1019E000A04390815948A101016059480268FF2431
:1019F0002402A2434C002243026054488038016014
:101A000054480160504803760361C360436003603B
:101A100030BDD3E74B492220086170474949222055
:101A20000861704708B5474901204A695206D20F3C
:101A300013D04A699206D20F0FD000220A61009299
:101A4000FF225F32009B5B1C00939342FAD34A69EA
:101A5000D207D20F02D022200861002008BDE1E7A2
:101A60003848A021016141698906C90FFBD041694D
:101A70004906C90FF7D07047F2E7334B5A61D96076
:101A800018613048012142688A430A434260704726
:101A9000F3E710B52C4CA26021606060FFF76CFF8B
:101AA0006068002805D02749486802229043104307
:101AB000486010BDEDE710B5224881680907090F9D
:101AC00001291AD002291CD0042917D00C2914D1BD
:101AD0001D4A117E012910D141690906C90F0CD098
:101AE0000021D160116183885B085B0083805369AA
:101AF000002B02D001205161984710BD00F005F87D
:101B000010BDFFF739FF10BDD5E70F490D4808E0BC
:101B100002680B691A705B1CCA680B61521ECA60AE
:101B200004D04269D207D20FF2D1704700220A6175
:101B300043685B085B0043604B69002BF5D00020D5
:101B40004A611847001100504080002080E100E009
:101B50000CE400E080E200E070B5EFF310850120B6
:101B600080F31088264801F079FE0446002D1DD030
:101B7000012080F31088002C23D020462038C08B11
:101B8000204988421DD16189208901F06DFE050040
:101B90000ED021461031A38962892089A8470028E8
:101BA00006D001280DD002280BD105E00020E0E787
:101BB000204601F05FFE04E0114821460C3001F0A0
:101BC0005FFEEFF31084012080F310880C4800685A
:101BD000002802D1012001F059FE002C03D0012081
:101BE00080F3108870BD0020FAE710B5BC210648CC
:101BF00001F052FE0549012001F054FE10BD000025
:101C0000A80508003883000004060800591B0020BE
:101C100070B516460D46104601F04AFE002869D000
:101C2000340A304601F044FE012812D0A87A1E285A
:101C300011D029460A310E2845D019DC801E030038
:101C400001F03CFE0B255829582D58315839583D84
:101C50005800022070BD3146274801F035FE0021B2
:101C6000204601F037FE0221304601F039FE41E006
:101C700018283CD006DC102819D012282BD01628A2
:101C800038D130E0522822D0D22833D127E0204664
:101C900001F02CFE2EE0204601F02EFE2AE0204628
:101CA00001F030FE26E0204601F032FE22E0204620
:101CB00001F034FE1EE0204601F036FE1AE0204618
:101CC00001F038FE16E0204601F03AFE12E0204610
:101CD00001F03CFE0EE0204601F03EFE0AE0204608
:101CE00001F040FE06E0204601F042FE02E0204600
:101CF00001F044FE002070BD01280000F3B581B062
:101D000001980C460102CA1D0E310223344801F02D
:101D10003BFE047001990546022732488E00002CD4
:101D200006D0042C16D0062C10D0072C3FD108E08A
:101D3000815905224968897C114069708059C773AF
:101D400035E0084601F026FE687030E080590F212A
:101D5000C1732CE0044680594068417C012902D1BE
:101D6000007E01280FD0019801F01AFE0121002801
:101D7000A0590BD04268D07D00281CD001281AD071
:101D800004280DD00FE0002068700DE04068C27D8F
:101D9000022A01D0042A06D1007C02280BD102E0DD
:101DA000107C022807D06F70A1590320C873284601
:101DB00001F0FCFDFEBD6970F6E701460A780120DE
:101DC000042A01D9002070474A78002A01D0012A4C
:101DD000F8D10A79082AF5D849790829F2D8704744
:101DE000021C000028050800FFB589B00D46002040
:101DF0006946059008720B98000A009001F0D0FD2A
:101E000007460B9801F054FD00287DD00B982978E7
:101E1000000A8400784E012963D0042904D00629E1
:101E200048D0072968D125E03059C17B032901D06A
:101E3000042961D1697800291AD040681022A91CB0
:101E400001F000FD002F06D03159C87B032807D0D0
:101E5000042808D050E03059C07B032803D04BE061
:101E60000B20C87348E00521009801F0A5FD43E070
:101E70000120B6E03059C07B0E283DD1009801F01A
:101E800089FD002103E02A18401C9170C0B210287F
:101E9000F9D3688A69460883294606A808221431BE
:101EA000023001F0CFFC06ABAA1C3946009801F0C5
:101EB00089FD21E03059C07B0F281DD1AA1C0A21C1
:101EC000009801F085FD002F04D03946009801F0FC
:101ED00085FD11E000231A463946009801F084FD83
:101EE0000AE0012F08D10B9801F0E2FC01281CD078
:101EF000002801D0022005906846007A002811D001
:101F000002AA0521009800E00CE001F061FD68469E
:101F1000027A602002436846027201233946009823
:101F200001F062FD05980DB0F0BD3059C07B02286C
:101F3000E2D16878002851D002210B9801F0D0FC42
:101F4000305907224068A91C173001F07BFCE87863
:101F5000002804D130594068407C01283AD00098CC
:101F600001F048FD002837D0297A009801F048FD9B
:101F7000002833D0009801F049FD0121009801F0BC
:101F80004BFD00282CD030594068417E00292BD0D1
:101F9000042929D0C17E027D1140C17630594068A4
:101FA000017F427D114001776846007A0028A7D161
:101FB0003059022142680098173201F009FD30596A
:101FC00041684031897B002913D004210098FFF734
:101FD00095FE91E7022004E0062002E0082000E0E0
:101FE0000320694608728BE70021C17630594068AA
:101FF000D9E70B21C1737FE728050800F8B50D4626
:10200000064681002B48EA884458521C20686B8998
:10201000018F294F51430091014640314A89C989B6
:10202000511A8AB2991A89B2B94214D29A4212D07C
:10203000294601F0F7FC2D892049009801F0F8FCB1
:102040002818801C4034E0823002401C80B20421F9
:1020500001F046FCF8BD2821304601F0EFFCF8BD48
:10206000F8B50546870013480C46C059C988006872
:10207000114E024640325389D2899A1A92B28B1A73
:102080009BB2B34211D20B4E8A420ED001F0DCFC5F
:10209000F05905225F30611C01F0D4FB2802401C7E
:1020A00080B2052101F01CFCF8BD2821284601F072
:1020B000C5FCF8BD4C030800FF7F0000102700009E
:1020C00070B50446007800250D2801D00A2200E0F2
:1020D00002225A494B7A002B06D00D2804D0637C8B
:1020E000032B01D0432551E0097A8A4339D10D28C9
:1020F00009D00E2802D00F2803D134E0607C0328D9
:1021000004D3402542E0607C0328FAD8A07C042850
:10211000F7D20A2908D0607C012822D0022820D0DA
:102120006078032809D811E001F094FC012806D159
:102130006078032803D0002801D0492526E001F06B
:1021400089FC002802D160780228F6D83020035D8F
:1021500022462046E17C3132143000F019F8054661
:1021600014E0422512E001F075FC012807D16078E7
:10217000052804D1A01D01F073FC0028DDD001F07A
:1021800069FC002802D160780228D6D8284670BDA4
:10219000FFB5002086B001216A4611700446059102
:1021A0000021002C06D0089D099A1F239A4234D999
:1021B000402032E01C23069D079AF7E76B185E78F3
:1021C000330001F07BFB1D261010101010101010B2
:1021D00010262626262626262626262626261010E1
:1021E000101010102600059B03E06F46FF5CB742FD
:1021F00004D05B1E5BB2002BF7DA03E0002B01DB9F
:102200004A2006E0059B6F46FE54059B5B1CDBB233
:1022100005936B5C491C5918C9B2914201D2002840
:10222000CCD0914202D04A200AB0F0BD641CE4B286
:10223000022CF9D20028B3D0F6E700009805080078
:1022400070B516460C46054601280FD106221749DF
:10225000174801F00BFC002808D00622144930462C
:1022600001F0F0FA06202070002070BD32462146B1
:10227000284601F001FC70BD70B50E480E49C4053A
:10228000228880252A4322800C4A53891B0701D4C7
:10229000401EFAD20A4A012010600622044801F0CA
:1022A000D1FA2088A843208070BD0000383E03008A
:1022B0005C800020A0860100D47F04002000005034
:1022C00000800040F8B5374C002660690090FEF7AA
:1022D000A0FB354D002802D12879022801D1002029
:1022E0000090FEF75AFD002859D101F0CBFB0028E1
:1022F00055D0E8780126002851D005273F07B88A35
:10230000C00701D004264AE001F03CFA002846D17B
:1023100026488069002801D060690090A978684645
:1023200001F0B6FB00283AD0A978684601F03CFAE3
:10233000002834D001208407E16B890A8902014317
:10234000E163E06B1A490840972189020843E06382
:10235000E06B0721C002C00A49050843E06300980A
:102360000426C002642101F063FB1249401E08608C
:102370002979002900D0012101F090FB0E48C06AA4
:102380008047206B0004C00FFBD00C480168C905D2
:10239000FCD501F089FB388980218843388130469B
:1023A000F8BD0000A0020020C6060800A80508002D
:1023B000FF03E0FF648000201C07080000020040CB
:1023C00010B50124A407A06BFEF7BFFC534901F030
:1023D0002FFB27221201511A00D10121504A5060CF
:1023E0001160206B082188430843206310BD38B575
:1023F000002000904B4908200880FEF73BFC052494
:10240000240702E000BF00BF00BFA08A0006F9D584
:1024100060898008800060814348418849084900FC
:102420004180FEF732FCA08A400701D5FEF79AFBF7
:102430002089802108432081208A0421884320822A
:10244000A08A8007FCD5394948050A68D20202D41F
:102450000269520702D4009A002AF6D038BD10B59E
:1024600001F028FB01F02CFB31490120087010BD60
:1024700010B501F02BFB05200007418A8022914313
:10248000418228480189490849000181D0058169B4
:1024900004221143816101F01FFB01F023FB01F0D5
:1024A00027FB23490020087010BD10B501F026FB62
:1024B00010BD10B501208007008A000704D501F087
:1024C00023FB1B490420087010BD70B51948008813
:1024D00085061648AD0E44681748006B0078002842
:1024E00002D1284601F016FB14480089104EC005A1
:1024F00007D520060BD5E00709D0284601F010FBD0
:1025000003E0200603D5E00701D00320307020044B
:1025100003D5E00501D50220307070BD71020000C6
:1025200040000040003300502000005000020040F6
:10253000688000200020005020020020002C005065
:10254000F8B514460F461E46054642880188062304
:10255000204601F019FA0446287901F0E7FA2080B4
:1025600027716680204601F021FAF8BD70B5144647
:10257000428800790D4601020C310423204801F005
:1025800003FA002D01D0132100E0122101704480D4
:1025900001F00CFA70BD0A880270120A42708A7843
:1025A0008270CA78C2700A7902714A794271897957
:1025B0008171072070474278037812021A430A801B
:1025C00082788A70C278CA7002790A7142794A7137
:1025D000807988710720704710B500F013F810BD9E
:1025E00070B5064615460C46362001F061F9022802
:1025F00005D1E2B236232946304601F09DFA70BD7E
:102600000D30000010B50C21074801F09BFA074976
:10261000362001F09DFA0021362001F061F904A076
:10262000FFF736F910BD0000DE900020343C00209A
:10263000207370735F7365727665725F696E69741B
:10264000203A207370735F7365727665725F696E8E
:102650006974200D0A000000F0B589B00521C90297
:1026600068460184C91C8182F8490183491E81831F
:10267000F74D0320EB80FF210A22B9310090019130
:10268000A81800233621074601F068FA04007DD11E
:10269000012601970096688908AB0222102101F0FB
:1026A00063FA0400F3D16889EA4A102101F062FA62
:1026B0000400ECD103A800960190688905AB0222C2
:1026C000132101F051FA0400E1D102AF7002E14B95
:1026D00001970090688910331022A02101F044FA7C
:1026E0000400D4D1DC496846007A48706846407AD4
:1026F00088700A4668461321808901F03BFA04007D
:10270000C5D10820019700900222688906AB1146C6
:1027100001F02AFA0400BAD104A800960190688951
:1027200007AB02220E2101F01FFA0400AFD1C94A03
:1027300068462B3A0E21008A01F01CFA040025D1CC
:1027400003A800960190688905AB0222132101F0CD
:102750000BFA04001AD10820BE4B0197009068893B
:1027600020331022A02101F0FFF9040078D1BA49EA
:102770006846007A08756846407A48750A46684691
:1027800013321321808901F0F5F900E068E00400BC
:1027900066D102A90920019100900222688906AB46
:1027A000114601F0E1F904005AD104AF01970096F7
:1027B000688907AB02220E2101F0D6F904004FD13F
:1027C000A44A68461C3A0E21008A01F0D3F904009D
:1027D00046D103A9012001910090688905AB02222E
:1027E000132101F0C1F904003AD102AE9B48994B84
:1027F00001960090688930331022012101F0B4F96C
:1028000004002DD1944968462331007A0871684646
:10281000407A4871CA1C68461321808901F0AAF9E0
:1028200004001DD10920019600900222688906ABA0
:10283000114601F099F9040012D10120019700908E
:10284000688907AB02220C2101F08EF9040007D140
:10285000804A68460D3A0C21008A01F08BF9044643
:102860006889002101F08CF9002C03D10121362068
:1028700001F036F8E98801233622794801F084F81E
:10288000047001F093F8002009B0F0BD70B5704CF1
:102890000D4662802380E380488801F077F920713B
:1028A000688820816089012101F06AF96D49002062
:1028B00008700221362001F013F86948E1880223EC
:1028C0003622801E01F060F86189891C018001F0C8
:1028D0006DF8002070BD10B55D480021408901F001
:1028E0004FF90121362000F0FBFF002010BDF8B5A4
:1028F0000878122839D15B4D2878401E0006000E5A
:10290000287032D15848007801282ED1574800F05D
:10291000E5FA4A2829D9802800D980201B211438BB
:1029200001F086F81B2148431430C2B269464F4873
:1029300000F008FB464E044601467089009A801C50
:1029400080B201F017F900280FD12146474800F066
:102950001BFB70890021801C82B23046FFF706FE07
:102960002878401C287000F036FC0020F8BDF8B52F
:10297000362000F09DFF022839D13A4D28780028F2
:1029800035D139480078012831D1384800F0A6FA0D
:1029900000282CD0802801D9802001E0142806D3FB
:1029A0001B21143801F044F81B2148431430C2B2F3
:1029B00069462E4800F0C6FA254E04460146708945
:1029C000009A801C80B201F0D5F800280FD1214672
:1029D000264800F0D9FA70890021801C82B2304666
:1029E000FFF7C4FD2878401C287000F0F4FB00209D
:1029F000F8BD10B5164C0A46608901210A3080B234
:102A000001F0B8F8608900210A3082B22046FFF751
:102A1000ADFD14490878401C0870002010BD70B549
:102A20000B4D0C46688909882B46C21C1B799142C4
:102A300021D0821D91421BD12046A178083000F0A0
:102A400025FB3EE00022184639E000000229000084
:102A5000DE9000206F3C0020A43D00200902000011
:102A600003D800006980002083800020C8800020F7
:102A7000C21D914203D1A0790128E3D021E0024692
:102A80000A32914204D1217A0F4800F0B8FA18E0D6
:102A90000B30814215D1207A01280AD1607A0028B2
:102AA00007D1E98801233622084800F06DFF00F0C5
:102AB0007DFFA079012804D121882879002201F026
:102AC0006BF8002070BD00008380002006D8000055
:102AD00038B50124684604700C21654801F032F8CD
:102AE000634D6946EC702A1D352001F05BF8002823
:102AF00000D02C7100F0A2FC5E49322001F028F8D1
:102B00000021322000F0ECFE38BD10B500F027FDAA
:102B100010BD10B5564802238078322201020E31D2
:102B2000554800F031FF012101701321417000F080
:102B30003DFF10BD10B504464D482C23807832224D
:102B400001024D480E31801E00F01EFF014620306C
:102B5000047200224272084600F028FF10BD10B532
:102B6000502332220D21454800F00EFF044600F0AC
:102B700081FC204600F01AFF0221322000F0B0FE56
:102B800010BD3E4810B5012332220D210B3800F054
:102B9000FBFE0221017000F009FF10BD10B500F02E
:102BA0002BFD10BD364B10B59A4201D91A4602E0F2
:102BB000002A00D1012200F0FBFF10BD10B5022158
:102BC000322000F08DFE2D48142332220D21401CAE
:102BD00000F0DAFE0021017411220270417001211F
:102BE00081740A2181810521C18100F0DFFE10BDC1
:102BF000224810B51E2332220D21C01C00F0C4FE55
:102C0000044601202077204606221E491D3000F090
:102C100019FE0A2121826182202121836183002102
:102C2000A1826170232001556420E082FF20813061
:102C3000A081FF206130E08112202070AF2292003D
:102C400032211148FFF7AEFF204600F0AFFE10BD65
:102C50000A4810B5012332220D210B3800F094FEF2
:102C60001121017000F0A2FE10BD0849C860704734
:102C70006A800020083D0020043800000E34000067
:102C8000307500007880002001C80000200200207C
:102C900010B5104600F00CFE00280ED101233222A0
:102CA0000D21684800F070FE04460120207066A0E7
:102CB000FEF7EEFD204600F079FE002010BD70B555
:102CC000087815460F282DD008DC01280DD00228E1
:102CD00035D003281CD00E2836D11FE0102825D06F
:102CE000112823D012282FD129E0487800282BD191
:102CF0005448222332220D21801C00F045FE044658
:102D00000146284600F03CFC204600F04FFE1BE048
:102D10004878002818D100F047FC15E0487800F00A
:102D200051FC11E0487800F04EFC0DE04878442852
:102D300002D0FFF743FF07E0FFF75AFF04E04878AF
:102D4000442801D100F04BFC002070BD70B51D4639
:102D500016460C46104600F0ABFD022821D1280A89
:102D6000464DFF28A8701AD03221454800F0ACFD2E
:102D70000521304600F0B4FD204600F075FB2188A7
:102D80002980617A6971214606220A31A81D00F066
:102D900059FD0020FFF7CEFEFFF700FF01E0FFF72F
:102DA000DEFE002070BD10B510460A780A2A0BD14D
:102DB0004978002903D0084600F002FC04E0052110
:102DC00000F08EFD00F0FDFB002010BD10B5104698
:102DD00000F0B9FB002010BD10B528480123807811
:102DE000322201020E31274800F0CEFD0021017091
:102DF00000F0DCFD002010BD10B510460C4600F0C0
:102E000057FD012808D12078002805D1FFF77DFE65
:102E1000002801D000F0DFFB002010BD10B50C46EB
:102E20002046122218A10C3000F020FE002806D106
:102E30000622A11C194800F005FDFFF709FF00203C
:102E400010BD000002340000206761706D5F646592
:102E5000766963655F72656164795F696E645F68F6
:102E6000616E646C6572203A204741504D5F524557
:102E70005345545F434D44200D0A20006A800020D2
:102E800001C80000103800001107B75C49D204A344
:102E90004071A0B535853EB08307000078800020E2
:102EA000F8B5069F026004464160481C0D460021AB
:102EB000E160216150431E46A060032100F07EFEC8
:102EC0006061002020210855AF4206DABE4204DCD2
:102ED000002E02DDE761A661F8BDFEE70269C16868
:102EE0008A4201DB501A704780688018401A704788
:102EF000F8B515460F460446FFF7F0FF6168081A5B
:102F0000002811DDA84200DAC5B22069A268411983
:102F10008E1A6169002E08DC08182A46394600F02E
:102F200091FC206940192061F8BD0818AD1B2A46A4
:102F3000394600F087FCE9193246606900F082FCEE
:102F40002661F8BD30B513460D460446FFF7C6FFAF
:102F5000002816DD984200DAC3B2E068A268C11802
:102F6000891A904201D1606903E0002903DC61699C
:102F70000818286006E0626910182860581AC3B261
:102F800000E00023184630BD30B50B460446FFF77D
:102F9000A5FF00280EDD984200DAC3B2E168A568FB
:102FA000CA18501BA94201D1E36004E0002802DCEA
:102FB000E26000E00023184630BD70B5002800D064
:102FC000FEE7FB4C002522461046257010211130EB
:102FD00000F0ADF9010004D022461046F54B113047
:102FE0000AE02078022803D0012801D0A57070BD26
:102FF0000021F04BEE4A0846FEF7F7FB70BD0229B0
:1030000003D0012900D1017070470021FBE770B5A2
:10301000E74C1646A41D0A4603462578314620464D
:10302000FFF7EDFF204619464230FFF761FF2146CA
:103030000846423000F0ABF96078012802D02078D1
:10304000A8420AD072B6DA488178002904D1012159
:1030500081700020FFF7B1FF62B670BD10B5D44A91
:10306000002802D0022803D0FEE75278082101E0B0
:103070005278C9B2CE480930FFF7C9FFCC4A0821BF
:10308000521CCD4B5018FEF7A3FB10BD0A4601465B
:10309000C74810B52430FFF72BFFC549C91C0846A7
:1030A000213000F074F9C24CE41C6078012804D18E
:1030B000022000F01AFB0020607072B6BC488178D4
:1030C000002904D1012181700020FFF776FF62B64C
:1030D00010BDB74808B5243000F00FF900281BD107
:1030E000B348483000F009F9002815D1B3480090E2
:1030F000B24BAF48E121C83B0122C9002430FFF7A1
:10310000CFFEFF205F300090A948FF2196230122C7
:10311000F5314830FFF7C4FE08BDA54A10B5521C72
:103120000821A54B5018FEF753FB10BDA049002005
:10313000C91C4870887001220A70C91C48708870C8
:103140000A70704710B59E480078002816D198483C
:10315000C01C0078012811D195484830FFF7BEFE09
:1031600000280BDD97494A2804DA0878421C0A70C7
:103170000A2803D30020087000F0C4FA10BD10B56F
:10318000914880780002323000F092FB05280BD184
:10319000022000F0AAFA86480221801DFFF72FFFC7
:1031A000834801214430017010BD814810B50121D0
:1031B000801DFFF724FF7E49C91C0846213000F01E
:1031C000A5F87B4CE41CA078012803D100F08DFA0F
:1031D0000020A07010BD764910B5891D0846423008
:1031E00000F094F87248801D807801280AD172B6E8
:1031F0006F488178002904D1012181700020FFF7F8
:10320000DCFE62B610BD10B5FFF787FF6848683076
:103210000078002801D1FEF7A0FA6C490020087060
:1032200010BDF8B56A4D002468690090FDF7F1FB08
:10323000684E002802D13079022801D10020009088
:10324000FDF7ABFD002820D100F01CFC00281CD0AD
:10325000012405200007808AC00715D100F092FAEA
:10326000002812D15C488069002801D0686900906C
:10327000B178684600F00CFC002806D0B1786846AA
:1032800000F092FA002800D004242046F8BD38B59A
:10329000FFF7C7FF694608700446042819D144485F
:1032A0002430FFF71BFE002809D141484830FFF7C2
:1032B00015FE002803D1FEF77CFA00280AD0424808
:1032C00080780002323000F0F3FA052801D1FDF7D2
:1032D0003FFB38BDFEF7C4FA0028F8D1042CF8D122
:1032E000FEF73FFA0121002804D038480170FDF7AD
:1032F0003CFB38BD6846017038BD002804D04069E9
:10330000002801D0012070470020704710B50C46FE
:103310000346FFF7E3FD9969884207DC20331878FC
:10332000012803D1002018700120A07010BDF8B54D
:1033300003461F480025801D867847782C46BE42EC
:1033400002D01778002F06D0147084704470007873
:10335000012805D019E0012E00D002261670F4E7EE
:1033600013480A461946243000F038F8104905463B
:10337000C91C08462130FFF7C9FF0D4EF61CB07876
:10338000012802D100F0B1F9B4702846F8BD10B59B
:103390000C460346FFF7A2FDD969884206DD2033BB
:1033A0001878002802D101206070187010BD00004C
:1033B00080800020BB2F00205D30002052030000E1
:1033C00069800020EB9000206A8000207680002039
:1033D000A0020020C6060800A8050800F8B514469B
:1033E0000E460546FFF77AFD002822DDA04200DAEE
:1033F000C4B2E868AA6801198F1A6969002F08DC4D
:1034000009182246304600F01DFAE8680019E86005
:103410000CE00918E21B3046009200F013FA009A03
:10342000696990193A4600F00DFAEF6000203055B6
:1034300001E0002434702046F8BD000010B50220E1
:10344000FFF713FC00F03AF910BD10B575480123E1
:103450008078322201020C31734800F095FA012184
:10346000017000F0A3FA10BD10B500F02FF9FFF7BE
:10347000ECFF10BDF0B5044693B00E20207000277D
:103480006770A020A081E081072020740120607473
:103490001C20E074254622461F2020351432287453
:1034A0001646511E0B2000F07DFB002805D012228D
:1034B000E2745EA1304600F0C5F922463132511E59
:1034C0000C20119200F06EFB002805D02F743A46B4
:1034D0005BA1119800F0B6F9E07C1A21081A0506E4
:1034E0002D0E2ED03E206946087001AA022000F061
:1034F00059FB002806D00B226846027052A101A891
:1035000000F062FB6846007800281AD0A84200D27A
:10351000054669460D70E07C6D1C8555E27C2046B1
:10352000092115301154E17C401C081869460A78BD
:1035300001A900F087F969460878E27C801C101820
:10354000E07413B0F0BD10B500F0B2F9032803D059
:10355000052801D0042801D1FFF701FB10BD70B58B
:10356000304D0024E878022807D2012801D100F06C
:1035700099F8E878401CE87000E00124204670BD0E
:10358000032008700A20487000204882087548759A
:1035900008220A8310224A8388836422CA83202255
:1035A0005054A020C882704710B50121322000F08D
:1035B00097F9FFF7AAFA002801D0FFF7D0FA10BD5B
:1035C00070477047704710B500F072F9022801D1BA
:1035D000FFF7C5FA10BD10B5FFF7C1FA10BD70476F
:1035E00010B5012332220D211A4800F0CDF9012136
:1035F000017000F0DBF910BD10B50A2332220E2154
:10360000154800F0C1F90A21017041808180002134
:10361000C1807D21C900018100F0C8F910BD70474B
:10362000704770476A800020013000001107B75CC6
:1036300049D204A34071A0B535853EB08307000090
:103640000303830700000000444131343538302043
:1036500053505300023400000E38000010B51046DD
:103660000C4600F025F9012809D132220123114628
:10367000900200F089F92178017000F097F900209C
:1036800010BD0020704710B505480078012804D00F
:10369000012000F02AF8002010BD0220F9E7000008
:1036A000C480002010B50223322236211B4800F0CE
:1036B0006BF90021018000F079F910BD10B5FFF71A
:1036C00008FDFFF72AFDFFF731FD10BD10B53621CB
:1036D00004233222880200F057F932210180104978
:1036E0000988418000F062F910BD10B504460B480E
:1036F000012332223621C01C00F046F9047000F08C
:1037000055F910BD054810B5012332223621801C21
:1037100000F03AF900F04AF910BD000002D80000AC
:103720006A800020064C0125064E05E02046E3682D
:1037300007C82B4398471034B442F7D3FCF784FEF4
:10374000703D0020A03D002003B40148019001BD60
:10375000551B020003B40148019001BD0F3B03005B
:1037600003B40148019001BDCF2B030003B401480D
:10377000019001BDCB2C030003B40148019001BDB1
:103780000990020003B40148019001BDC12D03005E
:1037900003B40148019001BD0921030003B40148AD
:1037A000019001BDC92D030003B40148019001BD82
:1037B0002B69020003B40148019001BDEB31030005
:1037C00003B40148019001BD3D32030003B4014838
:1037D000019001BDD721030003B40148019001BD50
:1037E0001F21020003B40148019001BD2F2F0300E7
:1037F00003B40148019001BD998F020003B4014850
:10380000019001BD938F020003B40148019001BDF6
:10381000CD8C020003B40148019001BD418F02002C
:1038200003B40148019001BD2768020003B40148B8
:10383000019001BD3968020003B40148019001BD47
:10384000B780020003B40148019001BD213B030091
:1038500003B40148019001BD8D3D030003B401484C
:10386000019001BDBF22020003B40148019001BDD7
:10387000EB26030003B40148019001BD3524030089
:1038800003B40148019001BD2F22020003B4014896
:10389000019001BDDD20030003B40148019001BD8A
:1038A000533B030003B40148019001BD9D20030078
:1038B00003B40148019001BDB326030003B40148DD
:1038C000019001BDFD3D030003B40148019001BD1D
:1038D000A528030003B40148019001BDD5AF020043
:1038E00003B40148019001BD3126030003B401482F
:1038F000019001BDA1A5020003B40148019001BDE2
:10390000E3A5020003B40148019001BD87A80200AD
:1039100003B40148019001BDA7A9020003B4014806
:10392000019001BD93AA020003B40148019001BDBA
:1039300095AB020003B40148019001BDF9AB020050
:1039400003B40148019001BD69AC020003B4014811
:10395000019001BD17AD020003B40148019001BD03
:1039600077AD020003B40148019001BDF1AD020042
:1039700003B40148019001BD85AE020003B40148C3
:10398000019001BD11AF020003B40148019001BDD7
:10399000B123030003B40148019001BD49E50200D1
:1039A00003B40148019001BDF9E3020003B40148EA
:1039B000019001BDE123030003B40148019001BD62
:1039C0004BCD020003B40148019001BD99D1020022
:1039D00003B40148019001BDABD0020003B401481B
:1039E000019001BD69D0020003B40148019001BDFE
:1039F00077CF020003B40148019001BD01CC020061
:103A000003B40148019001BD29CC020003B4014870
:103A1000019001BD15D2020003B40148019001BD1F
:103A20008DD2020003B40148019001BD3350020061
:103A300003B40148019001BDA73A030003B4014853
:103A4000019001BD5548020003B40148019001BD39
:103A50001F50020003B40148019001BD7F0C030018
:103A600003B40148019001BDAB0C030003B401484D
:103A7000019001BD773B030003B40148019001BDF3
:103A8000D729030003B40148019001BD7920030048
:103A900003B40148019001BD2129030003B401488A
:103AA000019001BDC768020003B40148019001BD47
:103AB0000D2C030003B40148019001BD1531030032
:103AC00003B40148019001BD1B66020003B4014824
:103AD000019001BD652C030003B40148019001BDB4
:103AE000DB2E030003B40148019001BD231D020039
:103AF00003B40148019001BDC32C030003B4014885
:103B0000019001BD3B66020003B40148019001BD74
:103B10002B66020003B40148019001BD038D020031
:103B200003B40148019001BDCF8F020003B40148E6
:103B3000019001BDE3E3020003B40148019001BD1F
:103B400095E3020003B40148019001BD533B03001B
:103B500003B40148019001BD8725030003B4014867
:103B6000019001BD9598020003B40148019001BD88
:103B70009599020003B40148019001BD6D9B0200BC
:103B800003B40148019001BD7B9C020003B40148CD
:103B9000019001BDB7E3020003B40148019001BDEB
:103BA000F3AF020003B40148019001BDD129030025
:103BB00003B40148019001BD2528030003B4014866
:103BC000019001BD1522030003B40148019001BD1D
:103BD000213B030002E008C8121F08C1002AFAD1E5
:103BE00070477047002001E001C1121F002AFBD17D
:103BF00070470000A9050020111C0020FD1C0020BA
:103C0000BB1D0020E91D0020FD1F002061200020B9
:103C1000C12000200101000A04280A040203AA00AE
:103C200055032A00A001FFFF2C01FF003F00FF0306
:103C3000FF010000E83C0020003D0020EA90002049
:103C40000300010053657276657220545820446168
:103C50007461005365727665722052582044617415
:103C60006100466C6F7720436F6E74726F6C00B7A3
:103C70005C49D204A34071A0B535853EB08307B836
:103C80005C49D204A34071A0B535853EB08307BA24
:103C90005C49D204A34071A0B535853EB08307B915
:103CA0005C49D204A34071A0B535853EB0830700BE
:103CB00002D800005926002000D800008D280020DE
:103CC00003380000D728002000300000EF28002033
:103CD0000E3000001F2A002004D800006F290020A9
:103CE00005D80000F3290020B03C002001000000AE
:103CF000B83C002001000000C03C0020050000008E
:103D0000000000000000000000000000683D0020EE
:103D1000778000200600010001340000912C002073
:103D200000340000BF2C0020103400001D2E0020A5
:103D300000380000A72D0020013800004D2D002084
:103D400003380000CD2D002000C80000F92D002010
:103D500003D800005D36002001D800008336002023
:103D600006D8000087360020183D00200A00000019
:103D7000E03D002000800020EC000000E43B00203B
:103D8000E03D002020900020CC000000E43B00201B
:103D900068070800202A0800E0050000E43B002036
:103DA000800C0000100000B85C49D204A34071A050
:103DB000B535853EB08307040000BA5C49D204A340
:103DC0004071A0B535853EB08307160000B95C4947
:103DD000D204A34071A0B535853EB0830700000032
:040000052000044192
:00000001FF
