:020000042000DA
:1000000000980020A1040020A9040020C1040020C1
:1000100000000000000000000000000000000000E0
:10002000000000000000000000000000D9040020D3
:100030000000000000000000F1040020F304002094
:1000400023240020053103000D31030093240020F8
:10005000A52400208D310300DF240020E7240020A8
:10006000F5040020F5040020FF240020AD3103003A
:10007000391800203D1B0020F5040020F504002065
:10008000F5040020F5040020F504002041160020AE
:1000900045160020491600204D160020511600205C
:020000042000DA
:1001600032000000510600208F0F00200D260020D5
:10017000000000000000000063800200BD8002005B
:10018000890D0020FB8002001981020035810200E8
:100190005D810200F523002037060020750D002048
:1001A0007F0D002000000000000000003F00000064
:1001B000F4850020000A0000680D0800900200008D
:1001C00068070800F405000004100800000800009B
:1001D000000000002000000048000000580000005F
:1001E0006800000004010000160100002801000062
:1001F0002E010000202A00008E2E000001000000C9
:100200008813000019100020E9600200FD9302002D
:100210001F1C002019280300A5740200752200206D
:1002200003000000D52002001D260020040000006D
:10023000D74902000F490200831D020063910200AA
:10024000B7910200BF910200078202007182020092
:1002500058470020AD8302009384020041850200CC
:1002600015860200378602005F860200758602004E
:10027000F9870200258902005D8A0200D38C020002
:10028000098D02000F900200438D0200278E0200AC
:10029000F98E0200478F0200FB0C0020D58F020070
:1002A00049510200775102002F5202001000000055
:1002B00020030000803E000000000000000000005D
:020000042000DA
:1002C000504600030003983A6400F401B80B000C98
:1002D000B80B120030003000CD009A01120024004B
:1002E00030006400B0001800280012001200D0078F
:1002F0000000FFFF00000000000000000000000000
:100300001F000002444131343538302D30310000B7
:1003100000000000000000000000000000000000DD
:0403200000000000D9
:020000042000DA
:10034000FFFF010000C201000000000000000000EB
:100350000000F4010100011B0A071AFFD200021578
:10036000585CDE931B0142CC9A1325009BEDC65EC0
:1003700000010002C5000000000009FF00605257A4
:100380002D424C450000000000000000000000006D
:100390000000000000000000000044413134353806
:1003A000300000000000000000000000000000001D
:1003B000000000000000000000000000000000003D
:1003C000000000000000000000000000000000002D
:1003D0000000000000000000010000CAEA80D00711
:0403E000064064323D
:020000042000DA
:100440000348854603F0F8FE00480047C720020035
:10045000009800200E4906200880FF200D49013039
:1004600008600D4988683E2290432E308860002243
:10047000052000070280018A0F231B021943018215
:1004800001210648C90404C1401EFCD562B670476C
:100490000034005080E100E000330050FF0B00000A
:1004A000154880471548004704207146084203D08C
:1004B000EFF3098012490847EFF308801049084715
:1004C00004207146084203D0EFF309800D49084724
:1004D000EFF308800B49084704207146084203D017
:1004E000EFF3098008490847EFF3088006490847F9
:1004F000FEE7FEE7FEE7000055040020410400206F
:10050000610A00200D050020BF050020052212070A
:10051000518A802319435182124903680B60436852
:100520004B6083688B60C368CB6003690B61436970
:100530004B6183698B61C369CB6108620A48836A36
:100540004B62C36A8B62036BCB62C36B0B63436BFF
:100550004B63806B8863908A800601D500BE70472C
:10056000FEE700000018080000ED00E08307FF220E
:10057000DB0E9A408907090E994000280BDA000724
:10058000000F08388308CD489B001B18D86990439A
:100590000843D86170478308C9489B001B18186836
:1005A000904308431860704702890889C549101AAA
:1005B00080B2884201D901207047002070478169CC
:1005C0002039897F082904D2BF4A890051588161A6
:1005D0007047FEE710B5BE48BC490161BD494161A5
:1005E000BD498161BD49C161BD490162BD494162E9
:1005F000BD498162BD49C162BD490163BD494163D5
:10060000BD498163BD49C163BB49B1485C314030DC
:100610000160BB494160BB498160BB49C160C816EC
:100620000124BA49E4060C600021FFF79FFFB74898
:100630008038046010BD10B5B5490020086000F096
:1006400057FB01208007016B49004908016310BD79
:100650001CB5B04901200870AF4908200880052466
:1006600024076088AD4E0425002823D1708801211D
:100670000843708000200190401C01901428FBDB8F
:10068000608980088000401C608160894006FCD53C
:10069000608928436081A24860806089A8436081A6
:1006A000A08A0006FCD5608980088000608160898E
:1006B0000006FCD503F0D2FD00F040FD00F06CFA1E
:1006C000984801780170984801780170012003F082
:1006D000CBFDFF2701370D203946800103F0CAFD0D
:1006E00001F0E4FD00F0BCFB00F07CFA042000F017
:1006F000DDF8072000F0DAF80A2000F0D7F806202D
:1007000000F0D4F80B2000F0D1F8012000F0CEF872
:10071000022000F0CBF8002000F0C8F88348006801
:1007200003F0AEFDB80501683943016000F01DF922
:100730000121C81EFFF71AFF02F066FCFFF77BFFDE
:10074000A220E08275484188E0229143A031418097
:10075000012003F09BFD0226208900061AD5012006
:100760008007006B000415D403F096FDC00711D17B
:10077000042003F097FD074603F09AFD002F09D0EF
:1007800000200190042101A803F098FD002801D069
:1007900000F0C1FA664F3878002807D06548007825
:1007A000002801D100F0F3FF0020387002F080FF34
:1007B00072B603F022F801F09FFD69460870042824
:1007C00006D002280CD003280AD001286BD06BE099
:1007D00059480078012802D00320087000E00E700C
:1007E000208A284320825548C0690128087811D9F9
:1007F000032845D103F068FD002841D003F06AFDCD
:1008000000283DD0032003F06BFD002838D04C4871
:10081000067008E0032833D103F062FD00282FD0D2
:100820004749012008702548016929430161618A0F
:10083000202291436182218A3143218269460A78CC
:10084000618A022A1ED0294361827F21238889017F
:1008500080273B43238000235B1CDBB20A2BFBD3A6
:10086000638A10273B436382364B491E59612188B6
:10087000802399432180022A0AD0032A08D00DE060
:100880006846C5E729436182618A102291436182EB
:1008900022494A88FF2301339A434A8030BF0169C5
:1008A000A943016100E030BF62B655E7C106C90E39
:1008B00001208840244908607047000000ED00E0F6
:1008C00000E400E030750000384700209427030062
:1008D0000084004062B600DF28A30200704701DFF9
:1008E0001CCA0200F8BD02DF40CB0200F5E703DFBF
:1008F00084D4020004DF89B0BC330200F8BD05DFF8
:10090000F8BD06DFEC0C030070BD07DF80E100E0FE
:100910008C030800008000200033005020000050AD
:100920001605000000000800202A0800049000209E
:10093000968000200881002054020800E001002079
:10094000C40608000080004080E200E0704700001C
:100950003E480178002902D08021417070473C490F
:10096000002008703B49C87070473848017800295A
:1009700002D0812141707047354901200870354906
:10098000C870704731480178002902D08221417037
:1009900070472F49022008702E490120C870704707
:1009A0002A488178002904D0491E0906090E817061
:1009B00017D142780021002A04D09207920F0270CA
:1009C000417004E00278002A01D0521E0270120623
:1009D000120E017005D0012A02D0022A01D1D1E7FE
:1009E000C3E7704710B5194CA078401CA070207860
:1009F000002805D103F07AFC421CFFF7A9FF227002
:100A000010BD12490120C870704710490020C870FD
:100A100070470E48C07870470020EFF31081012224
:100A200082F31088052212071289120605D40A489B
:100A3000028901231A4302811846002900D00121AE
:100A400081F31088704705480078704701800020C6
:100A500054020800C60608000033005068800020D9
:100A600005221207118A042319431182118A0223D5
:100A7000194311821189402319431181184B012117
:100A80001960184B08211980518A8023194351821B
:100A9000154903680B6143684B6183688B61C368C8
:100AA000CB6103690B6243694B6283698B62C369E3
:100AB000CB6208630D48836A4B63C36A8B63036B25
:100AC000CB63C36B084940310B60436B4B60806B59
:100AD0008860908A800601D500BE7047FEE700005E
:100AE00080E200E0003300504018080000ED00E014
:100AF00070B5384800220169D243002901D011465F
:100B000000E00121CB170C0F1B0123430C010161F5
:100B100031490D684E682C4333430C604B60436988
:100B2000002B01D0144600E00124E317E50E5B0121
:100B30002B4344610D6864014E682C4333430C60C1
:100B40004B60C369002B00D10122C261D017530E44
:100B5000C00118430C68D2014B68224318430A6055
:100B6000486070BD38B5002403252D0202232A46B3
:100B700004212046009400F084FB01231A02052181
:100B80000020009400F07DFB00232A460721184630
:100B9000009400F076FB38BD10B505242407208AA8
:100BA000022188432082A08A0007FCD5FFF712FDAE
:100BB000FFF7D8FFA08880210843A08003210920E7
:100BC00000F0B6FD608A20210843608202F0D1FD6A
:100BD00010BD0000289000202090002093490020A4
:100BE0004860704770B505200007018930229143A5
:100BF00001810189802211430181018989088900CD
:100C0000491C0181018908231943018188490C8805
:100C100014430C80448A9C43448205894024254324
:100C20000581058A0426B5430582858AAD07FCD572
:100C30007E4E002575600D88012635430D804D8957
:100C4000AE057C4D0E8801D52E4300E0AE430E80EC
:100C50000D887826B54328350D800D880626354346
:100C60000D80458A1D4345820B8893430B80028982
:100C7000A24302814889800503D56D490520603172
:100C800088800120800701688215914301606A48CD
:100C900001683F22520291434214891801600168A1
:100CA00002031143016070BD052000070188302256
:100CB0001143018001880322114301807047052000
:100CC000000701883022914301800188890889004A
:100CD000018070470321594809028181082242801E
:100CE0000021491C9629FCD38280704770477047C9
:100CF00010B5534803F000FB10BD70B54C4C608834
:100D0000C006050F03F0FEFA61881E2291436A00B7
:100D10001143618070BD10B54A490120C863C86B9A
:100D20000028FCD101208007C16947480268914230
:100D300001D20022026019238A1ADB019A4212D3DF
:100D4000016003F0E5FA414A1188884201D9411A4D
:100D500000E0091A89B2182905D31080012003F098
:100D6000DDFA03F0E1FA10BD08B5009808BD08B53A
:100D7000009808BD08B503F0DDFA009008BD08B57D
:100D800003F0DEFA009008BD08B5314901204A6938
:100D90005206D20F13D04A699206D20F0FD000220A
:100DA0000A610092FF225F32009B5B1C009393421A
:100DB000FAD34969C907C90F02D003F0C7FA002066
:100DC00008BD40183721C00009014018704710B510
:100DD000204A0020117800290DD01A490120C8634B
:100DE000C86B0028FCD101208007C0691A49096836
:100DF000884201D2012010BD0020107003F076FA65
:100E0000022803D003F072FA01280BD113490820FD
:100E1000088005200007818A8906FCD4418A802247
:100E200091434182002010BD0020704708800020BF
:100E30002000005000100000000200402030005050
:100E40007D120000C00000407C0408007804080007
:100E50000010005000800020204B00200033005084
:100E600030B58B4A8B49D005048880231C4304800D
:100E7000894C65892D0701D4521EFAD2874C012274
:100E80002260874C0A882280864A4988118001881E
:100E90009943018030BD002070477047704770470C
:100EA0000020704701218907086B0722104308635F
:100EB0007047704710B57D497B4808607C494C20DD
:100EC00008807B4B7B4A203B1A827C497A484880C9
:100ED0007C487B4901807A49193141802221418136
:100EE00081218900018278494182784901837649CC
:100EF00011314183734976482031888041217548FA
:100F0000090181807449C180734C1034C48101820D
:100F10004182891C8182611FC182FF214631018388
:100F20006E4941836E49592008806D486D4C2030D0
:100F30000480432444806C4C4C82D5218180FF2165
:100F4000D331018169494181694981816A4969488F
:100F500008805748694960384180C188102421437E
:100F6000C18060490A390181514C6549403C61802A
:100F70005A82082141814B485949008840390882EA
:100F8000474860490088088010BD4008704700B598
:100F90008BB05D4A42625D4A82625D4A42615D4A4F
:100FA000C2625D4A02605D4A02625D4A42605D4A19
:100FB000C2613E4A3C48002110603C484038026B08
:100FC00003129A430263426B1F231B049A430323B9
:100FD0001B04D218426354480268C3129A43026049
:100FE000026803139A43026068464154491CC9B21F
:100FF0002829FAD3014628224C4803F0ADF9FFF71F
:1010000059FF03F085F94A490880002003F086F96A
:1010100003F08AF90BB000BD10B5244A0F21224815
:101020000902106021484038426B1F231B049A4379
:1010300003231B04D218426300060268D208D200C0
:10104000026005200007028992089200521C02816A
:10105000028908231A430281028A0A4302820E4847
:101060004189890504D5018878229143083101809E
:10107000FFF720FF2F48006B0078002804D02E488F
:1010800000880B496039C880012003F0FFF810BDCB
:10109000A0860100087F040020000050008000406E
:1010A000560208004A0308004C055407800000401F
:1010B000602C00507F7F0000AC290000002200500F
:1010C00009090000002400502204000030D0000074
:1010D000EE110000002500502E0200004420000008
:1010E000402800500D95000002420000E4DC0000A2
:1010F0001092000053780000002A00508B1000006E
:101100009DD5000000260050970E00209B0E002069
:10111000A10E0020A50E00209D0E0020B30E002081
:101120009F0E00208B0F00200002004020000800CE
:10113000780408002002002052040800FEB50020B8
:10114000FE4E034628220021424392198C00491C7E
:1011500013510A29FADB401C0428F3DBFFF7C8FC13
:10116000F648002208380260426015460024F44820
:101170006900475A0120A04080B207421CD02820B5
:1011800068438019A1004058411C19D0002810D094
:10119000C117224603F0E6F82A0103F0E3F8E74B13
:1011A000083B1A685B681043E44A1943083A106028
:1011B0005160641C0A2CDDDB6D1C042DD6DBFEBDEA
:1011C0000095019400BEE3E7F8B5164604460D46C7
:1011D0000A461F460120002103F0C4F8220103F053
:1011E000C1F8D64B083B1A685B68104019400843A9
:1011F00000D100BE032C00D10424D2496001401864
:10120000690008183E43C680F8BD70B504460D4617
:101210000A460120002103F0A5F8220103F0A2F8FC
:10122000C64A083A1368526818401140084300D172
:1012300000BE032C00D10424C249600140180121E2
:10124000A940818070BD70B504460D460A46012054
:10125000002103F087F8220103F084F8B74A083A26
:101260001368526818401140084300D100BE032C97
:1012700000D10424B349600140180121A9404180F4
:1012800070BDFFB581B00C4605460A461F460120D9
:1012900000210A9E03F066F82A0103F063F8A74BC9
:1012A000083B1A685B6810401940084300D100BE33
:1012B000002E2146284602D0FFF7C5FF01E0FFF7C8
:1012C000A4FF3B4621462846039AFFF77DFF05B061
:1012D000F0BD70B504460D460A460120002103F01A
:1012E00041F8220103F03EF8944A083A1368526824
:1012F00018401140084300D100BE032C00D1042443
:1013000090496001401800880121A940084000D0A0
:10131000012070BDFFB514460D4606460A4681B051
:101320000120002103F01EF8320103F01BF8834B6B
:10133000083B1A685B6810401940084300D100BEA2
:1013400081A0006800908148838920461338FF22DD
:10135000013282400B999343002901D0012700E01C
:101360000027D10701D0002138E0910701D50121E4
:1013700034E0510701D5022130E0110701D50321E6
:101380002CE0D10601D5042128E0910601D50521E4
:1013900024E0510601D5062120E0110601D50721E0
:1013A0001CE0D10501D5082118E0910501D50921DE
:1013B00014E0510501D50A2110E0110501D50B21DA
:1013C0000CE0D10401D50C2108E0910401D50D21D8
:1013D00004E0510401D50E2100E00F218F405B494C
:1013E0003B438B818B890B9F9B099B013B438B81EB
:1013F0000B8A9343D70701D0002238E0970701D525
:10140000012234E0570701D5022230E0170701D549
:1014100003222CE0D70601D5042228E0970601D547
:10142000052224E0570601D5062220E0170601D543
:1014300007221CE0D70501D5082218E0970501D541
:10144000092214E0570501D50A2210E0170501D53D
:101450000B220CE0D70401D50C2208E0970401D53B
:101460000D2204E0520401D50E2200E00F220A9F53
:1014700097403B430B820B8A024601273846904037
:101480008343C20701D0002238E0820701D5012240
:1014900034E0420701D5022230E0020701D50322E1
:1014A0002CE0C20601D5042228E0820601D50522DF
:1014B00024E0420601D5062220E0020601D50722DB
:1014C0001CE0C20501D5082218E0820501D50922D9
:1014D00014E0420501D50A2210E0020501D50B22D5
:1014E0000CE0C20401D50C2208E0820401D50D22D3
:1014F00004E0400401D50E2200E00F220498904041
:1015000003430B821148610040380818418B6A463A
:101510008909925D8901521911434183A007C20EC6
:10152000FF21914080209040002C18DA2207120FF2
:10153000083A9308064A9B009B180BE0289000206D
:101540006E4700200030005001090F1900140050B0
:1015500000ED00E0DA698A430243DA6107E0A3089C
:101560003C4A9B009B181A688A4302431A60E006B3
:10157000C00E874038480760A9E610B5374CE389AC
:1015800001221338114681408B43C80701D0002047
:1015900038E0880701D5012034E0480701D5022052
:1015A00030E0080701D503202CE0C80601D504204F
:1015B00028E0880601D5052024E0480601D506204C
:1015C00020E0080601D507201CE0C80501D5082049
:1015D00018E0880501D5092014E0480501D50A2046
:1015E00010E0080501D50B200CE0C80401D50C2043
:1015F00008E0880401D50D2004E0480401D50E2040
:1016000000E00F2082401343E38110BD144A8000A4
:10161000801880384163704710B50446FFF7ADFF6E
:101620000F49A00040188038406B002801D0804747
:1016300010BDE106C90E012088400A49086010BDAE
:101640001320E9E71420E7E71520E5E71620E3E794
:101650001720E1E700E400E000E100E000140050A2
:10166000C890002080E200E0F0B4CB48C94D0022D1
:10167000C8496035836818E01C78002C04D0022C1F
:101680000BD0012C0BD0FEE746683478761C0C603A
:1016900004684660641E046003E0132400E0112423
:1016A0000C601A700468002C05D0AC8BA407E40F02
:1016B000E2D1F0BC704742604B680224A3434B6008
:1016C000C1680029F5D0C260F0BC00200847B148CD
:1016D0004069C007C00F01D000207047012070474B
:1016E000AC4922200861704700B5AA490122486927
:1016F0004006C00F16D048698006C00F12D0FFF711
:10170000E6FF00280ED00869022398430861FF23F2
:1017100087330220401C9842FCDBFFF7D8FF0028EB
:1017200003D000E00022104600BD22200861F9E746
:1017300030B4984A93898024A343938187231381EB
:101740000023938095892543958193809380108011
:1017500091819089A04390819048610101609048F7
:1017600002684024120A1202224302608B48803829
:1017700001608C4801608848203003702038436144
:101780008361036143608360036030BCACE78149DF
:1017900011200860704700B57E4A0121506940065B
:1017A000C00F14D050698006C00F10D0FFF78FFF14
:1017B00000280CD013201060FF2387330220401C28
:1017C0009842FCDBFFF783FF002803D000E00021F4
:1017D000084600BD11201060F9E76E480169022239
:1017E0009143016170476C48006870476948A021C7
:1017F000016141698906C90FFBD041694906C90FDA
:10180000F7D0704710B5644CE361A261216160615B
:101810006048012142688A430A43426010BD10B506
:101820005D4CE360A26021605A4960604868022212
:1018300090431043486010BD10B5564881680907B1
:10184000090F01291FD0022921D004291CD00C29FD
:1018500019D1514920310978012912D1416909066C
:10186000C90F0ED04C4900220A614A6183885B0887
:101870005B008380CB69002B03D0CA61002101206B
:10188000984700F029F810BD00F053F810BDFFF79D
:10189000EBFE10BD00B53F4841694906C90F09D0AC
:1018A00040698006C00F05D0FFF711FF002801D066
:1018B000002000BD012000BD36498A8A9206FCD571
:1018C0000880704700B5034602E0FFF7F5FF5B1C98
:1018D00018780028F9D100BDF8B50026324F2E4CFB
:1018E0002C4D0EE02868C0B23870112817D013288C
:1018F00019D0616908702069491C401E6161761C1D
:1019000020616869C007C00FECD16169087060612F
:101910002061E269E061314602209047F8BDA1698B
:1019200001200870EDE7A1690220087001F0DDFEDA
:10193000E7E7F8B500251C4F174C164E11E030684C
:10194000C0B23870112811D0132813D06169087003
:101950002069491C401E61616D1C206120690028BE
:101960000ED07069C007C00FE9D1F8BDA169012090
:101970000870F3E7A1690220087001F0B6FEEDE7F8
:1019800000206061E269002AEFD02946E0619047BB
:10199000F8BD0000001000501C80002080E100E035
:1019A0000CE400E080E200E0DC90002030B4724CF7
:1019B00071497248603408E043681A785B1C0A6019
:1019C00002684360521E026005D0A28B9207D20FBC
:1019D000F2D130BC7047002242604B680224A3431E
:1019E0004B6081680029F4D0826030BC0020084739
:1019F00030B5614A93898024A343938107231381DF
:101A0000002393809589254395819380938010804E
:101A100091819089A04390815948A1010160594862
:101A20000268FF242402A2434C002243026054486F
:101A30008038016054480160504803760361C360F8
:101A40004360036030BDD3E74B49222008617047F3
:101A5000494922200861704708B5474901204A6971
:101A60005206D20F13D04A699206D20F0FD000222D
:101A70000A610092FF225F32009B5B1C009393423D
:101A8000FAD34A69D207D20F02D02220086100207F
:101A900008BDE1E73848A021016141698906C90F05
:101AA000FBD041694906C90FF7D07047F2E7334BC5
:101AB0005A61D96018613048012142688A430A435B
:101AC00042607047F3E710B52C4CA2602160606063
:101AD000FFF76CFF6068002805D02749486802229C
:101AE00090431043486010BDEDE710B5224881686F
:101AF0000907090F01291AD002291CD0042917D07F
:101B00000C2914D11D4A117E012910D14169090601
:101B1000C90F0CD00021D160116183885B085B0084
:101B200083805369002B02D001205161984710BD7A
:101B300000F005F810BDFFF739FF10BDD5E70F49DC
:101B40000D4808E002680B691A705B1CCA680B61DB
:101B5000521ECA6004D04269D207D20FF2D1704738
:101B600000220A6143685B085B0043604B69002BFD
:101B7000F5D000204A611847001100504080002035
:101B800080E100E00CE400E080E200E070B5EFF3FB
:101B90001085012080F31088264802F0E9FB0446F6
:101BA000002D1DD0012080F31088002C23D020466A
:101BB0002038C08B204988421DD16189208902F0DC
:101BC000DDFB05000ED021461031A38962892089F2
:101BD000A847002806D001280DD002280BD105E027
:101BE0000020E0E7204602F0CFFB04E01148214648
:101BF0000C3002F0CFFBEFF31084012080F310884B
:101C00000C480068002802D1012002F0C9FB002C1A
:101C100003D0012080F3108870BD0020FAE710B5D2
:101C2000BC21064802F0C2FB0549012002F0C4FBBA
:101C300010BD0000A8050800388300000406080055
:101C40008D1B002070B516460D46104602F0BAFBFB
:101C5000002869D0340A304602F0B4FB012812D0C3
:101C6000A87A1E2811D029460A310E2845D019DC41
:101C7000801E030002F0ACFB0B255829582D58316B
:101C80005839583D5800022070BD3146274802F0AF
:101C9000A5FB0021204602F0A7FB0221304602F0FE
:101CA000A9FB41E018283CD006DC102819D01228E6
:101CB0002BD0162838D130E0522822D0D22833D168
:101CC00027E0204602F09CFB2EE0204602F09EFB1F
:101CD0002AE0204602F0A0FB26E0204602F0A2FB0C
:101CE00022E0204602F0A4FB1EE0204602F0A6FB04
:101CF0001AE0204602F0A8FB16E0204602F0AAFBFC
:101D000012E0204602F0ACFB0EE0204602F0AEFBF3
:101D10000AE0204602F0B0FB06E0204602F0B2FBEB
:101D200002E0204602F0B4FB002070BD0128000054
:101D3000F3B581B001980C460102CA1D0E31022391
:101D4000344802F0ABFB0470019905460227324883
:101D50008E00002C06D0042C16D0062C10D0072C98
:101D60003FD108E0815905224968897C114069709A
:101D70008059C77335E0084602F096FB687030E082
:101D800080590F21C1732CE0044680594068417C82
:101D9000012902D1007E01280FD0019802F08AFBB0
:101DA00001210028A0590BD04268D07D00281CD00A
:101DB00001281AD004280DD00FE0002068700DE033
:101DC0004068C27D022A01D0042A06D1007C022884
:101DD0000BD102E0107C022807D06F70A1590320BC
:101DE000C873284602F06CFBFEBD6970F6E7014639
:101DF0000A780120042A01D9002070474A78002A75
:101E000001D0012AF8D10A79082AF5D84979082998
:101E1000F2D87047021C000028050800FFB589B001
:101E20000D4600206946059008720B98000A009044
:101E300002F040FB07460B9802F0C4FA00287DD060
:101E40000B982978000A8400784E012963D0042970
:101E500004D0062948D0072968D125E03059C17B34
:101E6000032901D0042961D1697800291AD040687A
:101E70001022A91C02F070FA002F06D03159C87B3D
:101E8000032807D0042808D050E03059C07B03282D
:101E900003D04BE00B20C87348E00521009802F006
:101EA00015FB43E00120B6E03059C07B0E283DD140
:101EB000009802F0F9FA002103E02A18401C917002
:101EC000C0B21028F9D3688A69460883294606A853
:101ED00008221431023002F03FFA06ABAA1C394640
:101EE000009802F0F9FA21E03059C07B0F281DD18B
:101EF000AA1C0A21009802F0F5FA002F04D03946F6
:101F0000009802F0F5FA11E000231A4639460098CD
:101F100002F0F4FA0AE0012F08D10B9802F052FA0D
:101F200001281CD0002801D0022005906846007AC4
:101F3000002811D002AA0521009800E00CE002F070
:101F4000D1FA6846027A6020024368460272012391
:101F50003946009802F0D2FA05980DB0F0BD30591C
:101F6000C07B0228E2D16878002851D002210B986A
:101F700002F040FA305907224068A91C173002F0DD
:101F8000EBF9E878002804D130594068407C0128FA
:101F90003AD0009802F0B8FA002837D0297A009891
:101FA00002F0B8FA002833D0009802F0B9FA012103
:101FB000009802F0BBFA00282CD030594068417ECE
:101FC00000292BD0042929D0C17E027D1140C17681
:101FD00030594068017F427D114001776846007AA0
:101FE0000028A7D13059022142680098173202F028
:101FF00079FA305941684031897B002913D0042196
:102000000098FFF795FE91E7022004E0062002E029
:10201000082000E00320694608728BE70021C176A2
:1020200030594068D9E70B21C1737FE728050800C4
:10203000F8B50D46064681002B48EA884458521CE4
:1020400020686B89018F294F51430091014640312F
:102050004A89C989511A8AB2991A89B2B94214D2E5
:102060009A4212D0294602F067FA2D892049009839
:1020700002F068FA2818801C4034E0823002401CCC
:1020800080B2042102F0B6F9F8BD2821304602F0F2
:102090005FFAF8BDF8B50546870013480C46C059ED
:1020A000C9880068114E024640325389D2899A1A73
:1020B00092B28B1A9BB2B34211D20B4E8A420ED00F
:1020C00002F04CFAF05905225F30611C02F044F92D
:1020D0002802401C80B2052102F08CF9F8BD2821AD
:1020E000284602F035FAF8BD4C030800FF7F0000D7
:1020F0001027000070B50446007800250D2801D097
:102100000A2200E002225A494B7A002B06D00D2801
:1021100004D0637C032B01D0432551E0097A8A4324
:1021200039D10D2809D00E2802D00F2803D134E070
:10213000607C032804D3402542E0607C0328FAD861
:10214000A07C0428F7D20A2908D0607C012822D07C
:10215000022820D06078032809D811E002F004FAA0
:10216000012806D16078032803D0002801D0492532
:1021700026E002F0F9F9002802D160780228F6D8AA
:102180003020035D22462046E17C3132143000F0DD
:1021900019F8054614E0422512E002F0E5F901289D
:1021A00007D16078052804D1A01D02F0E3F90028CA
:1021B000DDD002F0D9F9002802D160780228D6D803
:1021C000284670BDFFB5002086B001216A46117017
:1021D000044605910021002C06D0089D099A1F2372
:1021E0009A4234D9402032E01C23069D079AF7E733
:1021F0006B185E78330002F0EBF81D2610101010FB
:1022000010101010102626262626262626262626DC
:1022100026261010101010102600059B03E06F46B4
:10222000FF5CB74204D05B1E5BB2002BF7DA03E021
:10223000002B01DB4A2006E0059B6F46FE54059B00
:102240005B1CDBB205936B5C491C5918C9B2914207
:1022500001D20028CCD0914202D04A200AB0F0BD71
:10226000641CE4B2022CF9D20028B3D0F6E70000D7
:102270009805080070B516460C46054601280FD192
:1022800006221749174802F07BF9002808D00622D9
:102290001449304602F060F806202070002070BD1E
:1022A00032462146284602F071F970BD70B50E48DD
:1022B0000E49C405228880252A4322800C4A53896E
:1022C0001B0701D4401EFAD20A4A012010600622E0
:1022D000044802F041F82088A843208070BD000027
:1022E000383E03005C800020A0860100D47F0400FB
:1022F0002000005000800040F8B5374C002660698F
:102300000090FEF786FB354D002802D1287902287F
:1023100001D100200090FEF75AFD002859D102F0AB
:102320003BF9002855D0E8780126002851D0052730
:102330003F07B88AC00701D004264AE001F0ACFF8D
:10234000002846D126488069002801D060690090A5
:10235000A978684602F026F900283AD0A97868469C
:1023600001F0ACFF002834D001208407E16B890A1A
:1023700089020143E163E06B1A4908409721890211
:102380000843E063E06B0721C002C00A4905084327
:10239000E06300980426C002642102F0D3F81249D9
:1023A000401E08602979002900D0012102F000F9BF
:1023B0000E48C06A8047206B0004C00FFBD00C4859
:1023C0000168C905FCD502F0F9F8388980218843F5
:1023D00038813046F8BD0000A0020020C606080083
:1023E000A8050800FF03E0FF648000201C07080028
:1023F0000002004010B50124A407A06BFEF7BFFC4B
:10240000534902F09FF827221201511A00D10121ED
:10241000504A50601160206B0821884308432063B4
:1024200010BD38B5002000904B4908200880FEF709
:102430003BFC0524240702E000BF00BF00BFA08AC8
:102440000006F9D560898008800060814348418892
:10245000490849004180FEF732FCA08A400701D5B7
:10246000FEF79AFB2089802108432081208A0421DD
:1024700088432082A08A8007FCD5394948050A682C
:10248000D20202D40269520702D4009A002AF6D07E
:1024900038BD10B502F098F802F09CF831490120DF
:1024A000087010BD10B502F09BF805200007418AA6
:1024B00080229143418228480189490849000181CD
:1024C000D005816904221143816102F08FF802F086
:1024D00093F802F097F823490020087010BD10B55A
:1024E00002F096F810BD10B501208007008A0007A1
:1024F00004D502F093F81B490420087010BD70B594
:102500001948008885061648AD0E44681748006BC8
:102510000078002802D1284602F086F81448008985
:10252000104EC00507D520060BD5E00709D0284678
:1025300002F080F803E0200603D5E00701D0032075
:102540003070200403D5E00501D50220307070BD45
:102550007102000040000040003300502000005095
:10256000000200406880002000200050200200206F
:10257000002C0050F8B514460F461E46054642880A
:1025800001880623204601F089FF0446287902F0DD
:1025900057F8208027716680204601F091FFF8BD32
:1025A00070B51446428800790D4601020C310423AF
:1025B0002D4801F073FF002D01D0132100E01221FE
:1025C0000170448001F07CFF70BD0A880270120A1D
:1025D00042708A788270CA78C2700A7902714A7928
:1025E000427189798171072070474278037812021D
:1025F0001A430A8082788A70C278CA7002790A7196
:1026000042794A71807988710720704710B500F0CF
:1026100093FA00F02BF800F05FFB10BD70B5064692
:1026200015460C46372001F0CDFE022805D1E2B256
:1026300037232946304602F009F81C2001F0C2FE7B
:10264000022805D1E2B21C232946304601F0FEFFE4
:10265000362001F0B7FE022805D1E2B23623294622
:10266000304601F0F3FF70BD0D30000010B50C21B5
:10267000074801F0F1FF0749372001F0F3FF00217F
:10268000372001F0B7FE04A0FFF71CF910BD0000D1
:10269000DE90002078470020207370735F736572AE
:1026A0007665725F696E6974203A207370735F7328
:1026B00065727665725F696E6974200D0A000000AC
:1026C000F0B589B00521C90268460184C91C818220
:1026D000F8490183491E8183F74D0320EB80FF21D8
:1026E0000A22B93100900191A8180023372107462A
:1026F00001F0BEFF04007DD1012601970096688994
:1027000008AB0222102101F0B9FF0400F3D168895F
:10271000EA4A102101F0B8FF0400ECD103A80096AA
:102720000190688905AB0222132101F0A7FF040084
:10273000E1D102AF7002E14B01970090688910333C
:102740001022A02101F09AFF0400D4D1DC49684690
:10275000007A48706846407A88700A4668461321B5
:10276000808901F091FF0400C5D1082001970090F5
:102770000222688906AB114601F080FF0400BAD13D
:1027800004A800960190688907AB02220E2101F08F
:1027900075FF0400AFD1C94A68462B3A0E21008A62
:1027A00001F072FF040025D103A80096019068890A
:1027B00005AB0222132101F061FF04001AD10820A9
:1027C000BE4B01970090688920331022A02101F0B0
:1027D00055FF040078D1BA496846007A0875684602
:1027E000407A48750A46684613321321808901F001
:1027F0004BFF00E068E0040066D102A909200191C6
:1028000000900222688906AB114601F037FF0400F0
:102810005AD104AF01970096688907AB02220E21B6
:1028200001F02CFF04004FD1A44A68461C3A0E2147
:10283000008A01F029FF040046D103A9012001917B
:102840000090688905AB0222132101F017FF0400F4
:102850003AD102AE9B48994B01960090688930337B
:102860001022012101F00AFF04002DD1944968468D
:102870002331007A08716846407A4871CA1C68465C
:102880001321808901F000FF04001DD10920019669
:1028900000900222688906AB114601F0EFFE0400A9
:1028A00012D1012001970090688907AB02220C2108
:1028B00001F0E4FE040007D1804A68460D3A0C217D
:1028C000008A01F0E1FE04466889002101F0E2FE81
:1028D000002C03D10121372001F08CFDE988012370
:1028E0003722794801F0DAFD047001F0E9FD00209B
:1028F00009B0F0BD70B5704C0D4662802380E38056
:10290000488801F0CDFE207168882081608901210E
:1029100001F0C0FE6D49002008700221372001F04F
:1029200069FD6948E18802233722801E01F0B6FD67
:102930006189891C018001F0C3FD002070BD10B5C4
:102940005D480021408901F0A5FE0121372001F0FA
:1029500051FD002010BDF8B50878122839D15B4D23
:102960002878401E0006000E287032D158480078A2
:1029700001282ED1574800F04FFD4A2829D9802838
:1029800000D980201B21143801F0DCFD1B214843B5
:102990001430C2B269464F4800F072FD464E0446FC
:1029A00001467089009A801C80B201F06DFE0028FB
:1029B0000FD12146474800F085FD70890021801C19
:1029C00082B23046FFF7ECFD2878401C287000F0FA
:1029D000B8FE0020F8BDF8B5372001F0F3FC02285E
:1029E00039D13A4D2878002835D139480078012866
:1029F00031D1384800F010FD00282CD0802801D9B2
:102A0000802001E0142806D31B21143801F09AFD20
:102A10001B2148431430C2B269462E4800F030FDF5
:102A2000254E044601467089009A801C80B201F050
:102A30002BFE00280FD12146264800F043FD708967
:102A40000021801C82B23046FFF7AAFD2878401C86
:102A5000287000F076FE0020F8BD10B5164C0A462E
:102A6000608901210A3080B201F00EFE60890021E8
:102A70000A3082B22046FFF793FD14490878401CC3
:102A80000870002010BD70B50B4D0C466889098890
:102A90002B46C21C1B79914221D0821D91421BD131
:102AA0002046A178083000F0A7FD3EE0002218463D
:102AB00039E0000002290000DE900020B34700202A
:102AC000244B00200902000003DC00006980002084
:102AD000A3800020E8800020C21D914203D1A0798C
:102AE0000128E3D021E002460A32914204D1217A42
:102AF0000F4800F03AFD18E00B30814215D1207AE2
:102B000001280AD1607A002807D1E98801233722F9
:102B1000084801F0C3FC01F0D3FCA079012804D1DE
:102B200021882879002201F0C1FD002070BD00003D
:102B3000A380002006DC000010B51221244801F01B
:102B40008BFD24491C2001F08DFD00211C2001F08B
:102B500051FC10BD30B503460120002103241A4664
:102B6000CA40D20704D04D006D1C2246AA40104333
:102B7000491CC9B20929F2D330BD024600201229EE
:102B800001D98D207047062A06D0072A07D0082AC7
:102B9000F8D10729F5D170470829F2D170470629E5
:102BA000EFD3704770B50A4C0546218802231C22DA
:102BB000094801F073FC058001F082FCE0880021E7
:102BC00001F068FD01211C2001F014FC70BD000023
:102BD0006A8000206049002004700000FEB53B4E72
:102BE0001C2070801D46174634460888FFF7B2FF48
:102BF00002903748334601900833132202A9009708
:102C0000A01D01F059FD040008D1F088002101F059
:102C100041FD044601211C2001F0ECFB01231C2294
:102C200029462C4801F03AFC047001F049FC0020D0
:102C3000FEBD70B50C4625490B802078082814D8B5
:102C4000CA880831415C51188DB2822D0BD0617851
:102C5000FFF793FF010009D16D1C6178A8B2A21C97
:102C600001F012FD08E0822100E08121194B174894
:102C70005B1CDA1CFFF77EFC002070BD70B51D46A2
:102C80000C46088801F00CFD104AFF2810711580D1
:102C900009D0A178D08801F0FDFC02211C2001F0B0
:102CA000A9FB002070BD0B4B89219B1C9A1C074877
:102CB000FFF760FCF5E710B5044A180A1279904254
:102CC00002D10888FFF76EFF002010BD6A80002047
:102CD0004C4800200170000010B50A21284801F07E
:102CE000BBFC2849362001F0BDFC0021362001F054
:102CF00081FB10BD70B5224D064629880A23362275
:102D0000214801F0CBFB0446287901F099FC208092
:102D100008223146A01C01F01FFB204601F0D0FB29
:102D200070BD7CB5164C0021E08801F0B3FC16485C
:102D3000218802233622401E01F0B0FB0546E088C0
:102D400001AA801C80B2694601F0BCFC207901F028
:102D500077FC2880284601F0B3FB0121362001F0E2
:102D600049FB7CBD10B5044605480123018806488F
:102D70003622001D01F092FB047001F0A1FB10BD92
:102D80007E800020E049002002D80000FFB589B015
:102D90000521C90268468182C91C018291490183CB
:102DA000914C3621618002214125009104220023AB
:102DB00001953621A01D01F05BFC05005ED1A01D30
:102DC000012500950190E08805AB0222102101F059
:102DD00055FCE088854A102101F056FC03AF0197AD
:102DE0000095E08804AB0222132101F047FC02AEFB
:102DF000092001960090E0887D4B1022082101F007
:102E00003DFC7C496846007A48706846407A887084
:102E10000A4668461321808901F036FC0197009527
:102E2000E08804AB0222132101F028FC72480196CD
:102E30000090E088714B1022012101F01FFC7049C5
:102E40006846007A48706846407A88700A46684644
:102E50001321808901F018FC0920019600900222BC
:102E6000E08806AB114601F009FC0546E088002128
:102E700001F010FC0121362001F0BCFA01233622BA
:102E800060480C9901F00AFB057001F019FB002065
:102E90000DB0F0BD38B50D4601206946524C088092
:102EA0002380288801F0FCFB2071FF2817D0A97827
:102EB000E08801F0EFFBE088EA1C801C80B208216A
:102EC00001F0E2FBE0882A46001D80B20B320121AE
:102ED00001F0DAFB287B2072002808D00AE01B23CF
:102EE000DB02DA1D89214048FFF744FB0DE000209A
:102EF00069460880E0886A46401D80B2022101F0E0
:102F0000C3FB0221362001F075FA002038BD70B5F0
:102F1000354D0C46287901F093FB2188884211D168
:102F2000E888A21C001D80B2012101F0ADFB287AC7
:102F3000C0070AD0E8880021001D82B22846FFF7AA
:102F40002FFB02E08120FFF70DFF002070BDF8B5D8
:102F5000254C180A0D4623790021802298422DD154
:102F6000E38828889E1CB04200D101212E460836F5
:102F70005B1D374698420FD0012902D002290BD0A1
:102F80001CE03246082101F07FFBE879002814D0CC
:102F9000287AFFF7AFFE10E06B7A297A1E020E4303
:102FA00001D0012E0AD13A46022101F06DFB207AB0
:102FB000012E09D040084000207200222988207983
:102FC00001F074FB0020F8BD01210843F4E710B5BF
:102FD0000549180A0979884201D1FFF7A2FE0020AD
:102FE00010BD0000022900007E800020B0490020B2
:102FF000C04900205D4B002001020000D0490020A4
:10300000704B002004D8000038B5012468460470D5
:103010000C21664801F020FB644D6946EC702A1DC6
:10302000352001F055FB002800D02C7100F0BCFCCD
:103030005F49322001F016FB0021322001F0DAF95D
:1030400000F0D6FF38BD10B500F054FD10BD10B52E
:10305000564802238078322201020E31554801F091
:103060001DFA012101701321417001F029FA10BDF0
:1030700010B504464D482C238078322201024D4879
:103080000E31801E01F00AFA01462030047200223F
:103090004272084601F014FA10BD10B550233222D6
:1030A0000D21454801F0FAF9044600F0AEFC204637
:1030B00001F006FA0221322001F09CF910BD3E48D1
:1030C00010B5012332220D210B3801F0E7F902215E
:1030D000017001F0F5F910BD10B500F063FD10BDF1
:1030E000364B10B59A4201D91A4602E0002A00D1A7
:1030F000012201F0F3FA10BD10B50221322001F0D7
:1031000079F92D48142332220D21401C01F0C6F913
:1031100000210174112202704170012181740A2181
:1031200081810521C18101F0CBF910BD224810B584
:103130001E2332220D21C01C01F0B0F904460120EB
:103140002077204606221E491D3001F005F90A218C
:10315000218261822021218361830021A18261700B
:10316000232001556420E082FF208130A081FF20D0
:103170006130E08112202070AF229200322111488C
:10318000FFF7AEFF204601F09BF910BD0A4810B5CD
:10319000012332220D210B3801F080F91121017039
:1031A00001F08EF910BD0849C86070478A80002080
:1031B000384A0020043800000E340000307500004A
:1031C0009880002002C800002002002010B51046A0
:1031D00001F0F8F800280ED1012332220D216848B1
:1031E00001F05CF904460120207066A0FEF76AFB3E
:1031F000204601F065F9002010BD70B5087815462D
:103200000F282DD008DC01280DD0022835D0032846
:103210001CD00E2836D11FE0102825D0112823D02D
:1032200012282FD129E0487800282BD15448222396
:1032300032220D21801C01F031F904460146284656
:1032400000F074FC204601F03BF91BE048780028B0
:1032500018D100F07FFC15E0487800F089FC11E0FF
:10326000487800F086FC0DE04878442802D0FFF74B
:1032700043FF07E0FFF75AFF04E04878442801D1F4
:1032800000F083FC002070BD70B51D4616460C464C
:10329000104601F097F8022821D1280A464DFF2850
:1032A000A8701AD03221454801F098F8052130461F
:1032B00001F0A0F8204600F093FB21882980617A74
:1032C0006971214606220A31A81D01F045F8002047
:1032D000FFF7CEFEFFF700FF01E0FFF7DEFE002064
:1032E00070BD10B510460A780A2A0BD1497800291A
:1032F00003D0084600F03AFC04E0052101F07AF81A
:1033000000F035FC002010BD10B5104600F0E6FBC3
:10331000002010BD10B52848012380783222010218
:103320000E31274801F0BAF80021017001F0C8F809
:10333000002010BD10B510460C4601F043F80128DE
:1033400008D12078002805D1FFF77DFE002801D0A4
:1033500000F017FC002010BD10B50C4620461222CC
:1033600018A10C3001F00CF9002806D10622A11C8E
:10337000194800F0F1FFFFF709FF002010BD000021
:1033800002340000206761706D5F64657669636573
:103390005F72656164795F696E645F68616E646CB9
:1033A0006572203A204741504D5F52455345545F66
:1033B000434D44200D0A20008A80002002C80000EE
:1033C000103800001107B75C49D204A34071A0B5C2
:1033D00035853EB08307000098800020F8B5069F31
:1033E000026004464160481C0D460021E1602161F5
:1033F00050431E46A060032101F076F96061002071
:1034000020210855AF4206DABE4204DC002E02DD60
:10341000E761A661F8BDFEE70269C1688A4201DB87
:10342000501A704780688018401A7047F8B51546E2
:103430000F460446FFF7F0FF6168081A002811DD07
:10344000A84200DAC5B22069A26841198E1A6169E2
:10345000002E08DC08182A46394600F07DFF206956
:1034600040192061F8BD0818AD1B2A46394600F006
:1034700073FFE9193246606900F06EFF2661F8BDFE
:1034800030B513460D460446FFF7C6FF002816DD8B
:10349000984200DAC3B2E068A268C118891A904263
:1034A00001D1606903E0002903DC61690818286024
:1034B00006E0626910182860581AC3B200E00023C1
:1034C000184630BD30B50B460446FFF7A5FF00286F
:1034D0000EDD984200DAC3B2E168A568CA18501B35
:1034E000A94201D1E36004E0002802DCE26000E0D0
:1034F0000023184630BD70B5002800D0FEE7FF4C11
:1035000000262246104626701021113000F0C5F921
:1035100005001CD0224601461046F94B1130FEF73B
:103520007EF9F64E002411360EE0305D312803D1CD
:1035300007210020FDF787FE305D322803D10721E7
:103540000020FDF762FE641CAC42EEDB70BD20780B
:10355000022803D0012801D0A67070BD0021E84BDD
:10356000E64A0846FEF75BF970BD022903D001293F
:1035700000D1017070470021FBE770B5DF4C1646A3
:10358000A41D0A460346257831462046FFF7EDFF85
:10359000204619464230FFF749FF2146084642308F
:1035A00000F0C2F96078012802D02078A8420AD041
:1035B00072B6D2488178002904D10121817000209F
:1035C000FFF799FF62B670BD10B5CC4A002802D053
:1035D000022803D0FEE75278082101E05278C9B2F0
:1035E000C6480930FFF7C9FFC44A0821521CC54B21
:1035F0005018FEF707F910BD0A460146BF4810B53E
:103600002430FFF713FFBD49C91C0846213000F0E4
:103610008BF9BA4CE41C6078012804D1022000F038
:10362000C4FB0020607072B6B4488178002904D1D0
:10363000012181700020FFF75EFF62B610BDAF4828
:1036400008B5243000F00FF900281BD1AB484830F2
:1036500000F009F9002815D1AB480090AA4BA74803
:10366000E121C83B0122C9002430FFF7B7FEFF204B
:103670005F300090A148FF2196230122F5314830A8
:10368000FFF7ACFE08BD9D4A10B5521C08219D4BAA
:103690005018FEF7B7F810BD98490020C91C4870B3
:1036A000887001220A70C91C487088700A707047BF
:1036B00010B596480078002816D19048C01C0078B4
:1036C000012811D18D484830FFF7A6FE00280BDDF8
:1036D0008F494A2804DA0878421C0A700A2803D362
:1036E0000020087000F06EFB10BD10B5894880788E
:1036F0000002323000F066FE05280BD1022000F0F7
:1037000054FB7E480221801DFFF72FFF7B480121DB
:103710004430017010BD794810B50121801DFFF7BC
:1037200024FF7649C91C0846213000F0A5F8734CE7
:10373000E41CA078012803D100F037FB0020A07022
:1037400010BD6E4910B5891D0846423000F094F84E
:103750006A48801D807801280AD172B6674881784E
:10376000002904D1012181700020FFF7C4FE62B658
:1037700010BD10B5FFF787FF60486830007800285B
:1037800001D1FEF704F864490020087010BDF8B5B7
:10379000624D002468690090FDF73BF9604E0028F7
:1037A00002D13079022801D100200090FDF70FFBF3
:1037B000002820D100F0F0FE00281CD001240520B4
:1037C0000007808AC00715D100F066FD002812D1DD
:1037D00054488069002801D068690090B178684633
:1037E00000F0E0FE002806D0B178684600F066FDE3
:1037F000002800D004242046F8BD38B5FFF7C7FFE5
:10380000694608700446042819D13C482430FFF763
:1038100003FE002809D139484830FFF7FDFD002894
:1038200003D1FDF7E0FF00280AD03A488078000273
:10383000323000F0C7FD052801D1FDF789F838BD09
:10384000FEF728F80028F8D1042CF8D1FDF7A3FFE3
:103850000121002804D030480170FDF786F838BDFA
:103860006846017038BD002804D04069002801D0A6
:10387000012070470020704710B50C460346FFF743
:10388000CBFD9969884207DC20331878012803D1E1
:10389000002018700120A07010BDF8B5034617482D
:1038A0000025801D867847782C46BE4202D01778C6
:1038B000002F06D01470847044700078012805D061
:1038C00019E0012E00D002261670F4E70B480A46D4
:1038D0001946243000F038F808490546C91C084646
:1038E0002130FFF7C9FF054EF61CB078012802D140
:1038F00000F05BFAB4702846F8BD0000A0800020FC
:10390000F7340020C93500205203000069800020F0
:10391000EB9000208A80002096800020A0020020EA
:10392000C6060800A805080010B50C460346FFF7B8
:1039300073FDD969884206DD20331878002802D14A
:1039400001206070187010BDF8B514460E4605468B
:10395000FFF762FD002822DDA04200DAC4B2E86869
:10396000AA6801198F1A6969002F08DC0918224614
:10397000304600F0F1FCE8680019E8600CE0091836
:10398000E21B3046009200F0E7FC009A696990194A
:103990003A4600F0E1FCEF600020305501E00024E1
:1039A00034702046A8E7000010B50220FFF7FBFBAB
:1039B00000F0E4F900F016FA10BDC648012181704C
:1039C000704710B5C44801238078322201020C31BF
:1039D000C24800F063FD0121017000F071FD10BDCF
:1039E00010B500F0D3F9BC48008800F019FAB948C6
:1039F0008078FFF73DFB00F0BFFB32221146B8484C
:103A000000F06CFEFFF7DDFF10BDF0B5044693B08B
:103A10000E20207000276770A020A081E081072081
:103A20002074012060741C20E074254622461F206B
:103A30002035143228741646511E0B2000F048FE23
:103A4000002805D01222E274A6A1304600F084FCC2
:103A500022463132511E0C20119200F039FE00280E
:103A600005D02F743A46A4A1119800F075FCE07CB3
:103A70001A21081A05062D0E2ED03E206946087020
:103A800001AA022000F024FE002806D00B2268467E
:103A900002709BA101A800F02DFE68460078002866
:103AA0001AD0A84200D2054669460D70E07C6D1C14
:103AB0008555E27C2046092115301154E17C401CDB
:103AC000081869460A7801A900F046FC694608789A
:103AD000E27C801C1018E07413B0F0BD10B500F04B
:103AE00071FC032803D0052801D0042801D1FFF779
:103AF000D4FA10BD70B5784D0024E878042812D2AD
:103B0000012807D0022802D0032808D105E000F0E0
:103B100029F904E000F067F901E000F023FBE87800
:103B2000401CE87000E00124204670BD03200870AE
:103B30000A204870002048820875487508220A83C8
:103B400010224A8388836422CA8320225054A020F2
:103B5000C882704710B50121322000F04BFCFFF7FE
:103B600072FA002801D0FFF798FA10BD704770472D
:103B7000704710B500F026FC022801D1FFF78DFA3E
:103B800010BD10B5FFF789FA10BD704710B50123BD
:103B900032220D215D4800F081FC0121017000F00E
:103BA0008FFC10BD10B50A2332220E21584800F0B8
:103BB00075FC0A210170418081800021C1807D2136
:103BC000C900018100F07CFC10BD7047704750486F
:103BD00010B51E2332220E21801D00F05FFC012152
:103BE000017041700022C27010234371032383705F
:103BF0000171027204228271C17100F061FC10BD7A
:103C000070B543481E2332220E21801D00F046FC71
:103C1000044600F0BFF905460420207001206070C2
:103C20001021A01C00F018FD280E6071280C2071D6
:103C3000280AE070A570204600F042FC70BD704775
:103C400070B5054632481E2332220E21801D00F039
:103C500025FC0446687800F0A6F9062020700120B3
:103C600060701021A01C00F0F7FC062229A1A01C06
:103C700000F072FB204600F023FC70BD70B50546D5
:103C800023481E2332220E21801D00F007FC04462B
:103C9000687800F088F9072020700E4901206070D4
:103CA0002039887E2077088B6082204608221031D8
:103CB000143000F051FB074910222039A01C00F0FD
:103CC0004BFB204600F0FCFB70BD704701207047A5
:103CD000704700002C8100208A8000200130000005
:103CE00001C800001107B75C49D204A34071A0B518
:103CF00035853EB083070000030383070000000002
:103D000044413134353830205350530002340000E0
:103D10000E380000ABAB45552301000010B510462E
:103D20000C4600F04FFB012809D132220123114635
:103D3000900200F0B3FB2178017000F0C1FB00207D
:103D400010BD0020704710B505480078012804D048
:103D5000012000F02AF8002010BD0220F9E7000041
:103D6000E480002010B50223322237211B4800F0E6
:103D700095FB0021018000F0A3FB10BD10B5FFF7FB
:103D80005EFCFFF780FCFFF787FC10BD10B5372104
:103D900004233222880200F081FB32210180104985
:103DA0000988418000F08CFB10BD10B504460B481B
:103DB000012332223721C01C00F070FB047000F098
:103DC0007FFB10BD054810B5012332223721801C2E
:103DD00000F064FB00F074FB10BD000002DC00008A
:103DE0008A800020704710B51C21022332228802ED
:103DF00000F054FBFF217431018000F061FB10BD25
:103E000070B50C460546042332221C21054800F0FB
:103E100045FB058084700021C17000F051FB70BD2E
:103E20000121EDE703700000FEB510460D4600F0DD
:103E3000C9FA01287ED1287800287AD10E233222AF
:103E40001C21444800F02AFB0446002020700B2669
:103E50006670324640A1A01C00F07EFA204600F0B9
:103E60002FFB0A2332221C213A4800F017FB04469C
:103E7000012020700720607002463AA1A01C00F0CB
:103E80006BFA204600F01CFB0B2332221C21314828
:103E900000F004FB044606202070082060700246F3
:103EA00032A1A01C00F058FA204600F009FB0C27B4
:103EB0000F2332221C21274800F0F0FA0446052087
:103EC000207067703A462CA1A01C00F045FA2046ED
:103ED00000F0F6FA0E2332221C211E4800F0DEFA12
:103EE0000446042020706670324627A1A01C00F012
:103EF00033FA204600F0E4FA0A2332221C21154846
:103F000000F0CCFA044608202070072060700120E1
:103F1000A070D22168460180F1014180FF2101316A
:103F2000818006226946E01C00F016FA204600F067
:103F3000C7FA00E009E0322201231146900200F0A6
:103F4000ADFA2978017000F0BBFA0020FEBD002018
:103F500070470000027000004469616C6F67205375
:103F6000656D69004441313435383000123456FFF4
:103F7000FE9ABCDE00000000765F332E3135302E15
:103F8000322E313800000000765F332E302E372E6F
:103F90003435300010B500F0B3FB254900F0B6FB16
:103FA0002448081810BDF8B5234D0646A87600240D
:103FB00000F0A6FB2919641CE4B20874082CF7D39E
:103FC00000241027381BB04201DD002007E000F07C
:103FD00097FBC117090E0918090A0902401A28554A
:103FE000641CE4B2102CEDD300F08AFB2883F8BDEA
:103FF00010B52421104800F02FFBFFF7DEFC10BDA8
:1040000010B50E4802238078322201020E310C488E
:1040100000F044FA0D210170074920318978417080
:1040200000F04EFA0321322000F0E4F910BD000048
:10403000A0BB0D00A08601000C8100208A8000201A
:104040001A38000010B5084609781C460B0000F02D
:10405000BFF908051E1E1E0816191C1EFFF7B7FD26
:1040600015E04178012902D0022903D00FE0FFF7C3
:10407000C7FD0CE011462046FFF7A8FD07E0FFF75B
:10408000DEFD04E0FFF7DCFD01E0FFF7F7FD0020B7
:1040900010BD10B50878304C801E030000F098F970
:1040A000020214188878A070C0070AD02B492A4A47
:1040B0004879203AD07628480622891D001F00F052
:1040C0004BF9FFF702FE03E0FEF7C1FF0020A070EE
:1040D000002010BDF8B518460D46014612232048B1
:1040E00000F0DCF904462846FFF7F0FD0027002821
:1040F00021D0194EB078C0071DD030460822A91C27
:10410000103800F03DFA002815D130462038018BD8
:104110002A8891420FD101212170807E607431463E
:1041200010222039601C00F017F9B078FEF7A0FFCC
:10413000FFF74BFD00E02770204600F0C1F9207822
:10414000002801D1FEF783FF0020F8BD10B5FFF76E
:10415000BFFD002010BD00002C8100208A800020BF
:104160001838000010B50123322236210F4800F024
:1041700095F900F0A5F910BD10B536210E233222B5
:10418000880200F08BF90446094808220088208044
:104190000120A0700749E01C00F0DEF8FF20E0726B
:1041A00000202073204600F08BF910BD03D80000DA
:1041B0008A800020834B002010B510460C4600F08A
:1041C00001F9012809D1322201231146900200F0A1
:1041D00065F92178017000F073F9002010BD00200E
:1041E000704710B50822891C0E4800F0B5F8002071
:1041F00010BD10B5322211460B4800F06FFA0B4C7F
:10420000042320783222801C20703621084800F0D8
:1042100045F92178817007490988018000F050F93B
:10422000002010BD834B002001C80000EC9000204E
:1042300005D800008A800020064C0125064E05E0C6
:104240002046E36807C82B4398471034B442F7D39D
:10425000FCF7FAF8F04A0020204B002003B4014894
:10426000019001BD551B020003B40148019001BD3E
:104270000F3B030003B40148019001BDCF2B0300A5
:1042800003B40148019001BDCB2C030003B40148E5
:10429000019001BD0990020003B40148019001BDE5
:1042A000C12D030003B40148019001BD09210300A1
:1042B00003B40148019001BDC92D030003B40148B6
:1042C000019001BD2B69020003B40148019001BDBA
:1042D000EB31030003B40148019001BD3D320300FE
:1042E00003B40148019001BDD721030003B4014884
:1042F000019001BD1F21020003B40148019001BDDE
:104300002F2F030003B40148019001BD998F0200D3
:1043100003B40148019001BD938F020003B401482A
:10432000019001BDCD8C020003B40148019001BD94
:10433000418F020003B40148019001BD27680200CB
:1043400003B40148019001BD3968020003B401487B
:10435000019001BDB780020003B40148019001BD86
:10436000213B030003B40148019001BD8D3D0300D2
:1043700003B40148019001BDBF22020003B401480B
:10438000019001BDEB26030003B40148019001BD7B
:104390003524030003B40148019001BD2F2202001F
:1043A00003B40148019001BDDD20030003B40148BE
:1043B000019001BD533B030003B40148019001BDCE
:1043C0009D20030003B40148019001BDB326030002
:1043D00003B40148019001BDFD3D030003B4014851
:1043E000019001BDA528030003B40148019001BD5F
:1043F000D5AF020003B40148019001BD312603008E
:1044000003B40148019001BDA1A5020003B4014815
:10441000019001BDE3A5020003B40148019001BD74
:1044200087A8020003B40148019001BDA7A90200BA
:1044300003B40148019001BD93AA020003B40148EE
:10444000019001BD95AB020003B40148019001BD8C
:10445000F9AB020003B40148019001BD69AC020050
:1044600003B40148019001BD17AD020003B4014837
:10447000019001BD77AD020003B40148019001BD78
:10448000F1AD020003B40148019001BD85AE020008
:1044900003B40148019001BD11AF020003B401480B
:1044A000019001BDB123030003B40148019001BD97
:1044B00049E5020003B40148019001BDF9E302009F
:1044C00003B40148019001BDE123030003B4014896
:1044D000019001BD4BCD020003B40148019001BD24
:1044E00099D1020003B40148019001BDABD0020094
:1044F00003B40148019001BD69D0020003B4014832
:10450000019001BD77CF020003B40148019001BDC5
:1045100001CC020003B40148019001BD29CC020086
:1045200003B40148019001BD15D2020003B4014853
:10453000019001BD8DD2020003B40148019001BD7C
:104540003350020003B40148019001BDA73A0300B3
:1045500003B40148019001BD5548020003B401486D
:10456000019001BD1F50020003B40148019001BD3C
:104570007F0C030003B40148019001BDAB0C0300A4
:1045800003B40148019001BD773B030003B4014827
:10459000019001BDD729030003B40148019001BD7A
:1045A0007920030003B40148019001BD21290300D3
:1045B00003B40148019001BDC768020003B401487B
:1045C000019001BD0D2C030003B40148019001BD11
:1045D0001531030003B40148019001BD1B660200C0
:1045E00003B40148019001BD652C030003B40148E8
:1045F000019001BDDB2E030003B40148019001BD11
:10460000231D020003B40148019001BDC32C030027
:1046100003B40148019001BD3B66020003B40148A8
:10462000019001BD2B66020003B40148019001BD59
:10463000038D020003B40148019001BDCF8F020039
:1046400003B40148019001BDE3E3020003B4014853
:10465000019001BD95E3020003B40148019001BD42
:10466000533B030003B40148019001BD87250300BB
:1046700003B40148019001BD9598020003B40148BC
:10468000019001BD9599020003B40148019001BD5C
:104690006D9B020003B40148019001BD7B9C0200A8
:1046A00003B40148019001BDB7E3020003B401481F
:1046B000019001BDF3AF020003B40148019001BDB8
:1046C000459F020003B40148019001BDA59B020073
:1046D00003B40148019001BDD129030003B401488E
:1046E000019001BD2528030003B40148019001BDDC
:1046F0001522030003B40148019001BD213B0300D2
:1047000003B40148019001BDFD3A030003B4014820
:10471000019001BDD33A030002E008C8121F08C18E
:10472000002AFAD170477047002001E001C1121F32
:10473000002AFBD170470000A9050020451C00207D
:10474000311D0020EF1D00201D1E00203120002003
:1047500095200020F52000200101000A04280A0409
:104760000203AA0055032A00A001FFFF2C01FF004D
:104770003F00FF03FF0100002C48002044480020B8
:10478000EA900020030001005365727665722054A0
:1047900058204461746100536572766572205258E6
:1047A000204461746100466C6F7720436F6E7472B1
:1047B0006F6C00B75C49D204A34071A0B535853E4B
:1047C000B08307B85C49D204A34071A0B535853EDB
:1047D000B08307BA5C49D204A34071A0B535853EC9
:1047E000B08307B95C49D204A34071A0B535853EBA
:1047F000B083070002DC0000C126002000DC0000BE
:10480000F5280020033800003F2900200030000078
:10481000572900200E300000872A002004DC000009
:10482000D729002005DC00005B2A0020F447002087
:1048300001000000FC4700200100000004480020A7
:10484000050000000000000000000000002801003A
:104850000200020030490020032801000500050085
:1048600032490020292A0100120000000000000047
:10487000032801000500050037490020242A010013
:1048800012000000000000000328010005000500E0
:104890003C490020252A0100120000000000000011
:1048A000032801000500050041490020272A0100D6
:1048B00012000000000000000328010005000500B0
:1048C00046490020262A01001200000000000000D6
:1048D00003280100050005004B490020282A01009B
:1048E0001200000000000000032801000500050080
:1048F00050490020232A01000800000000000000A9
:104900000328010005000500554900202A2A01005E
:10491000120000000000000003280100050005004F
:104920005A490020502A0100070000000000000042
:104930000A18020000292A020100242A0202002586
:104940002A020300272A020400262A020500282A38
:10495000020600232A0207002A2A020800502A0021
:1049600090490020A84900207C800020030001001D
:1049700000700000DD2B002002700000332C0020AE
:10498000037000007D2C002003380000B72C0020AD
:10499000704900200100000078490020020000005A
:1049A0000000000000000000884900200100000015
:1049B000000102030405060708090A0B0C0D0E0F7F
:1049C000101112131415161718191A1B1C1D1E1F6F
:1049D000202122232425262728292A2B2C2D2E2F5F
:1049E000184A0020304A002088800020030001007F
:1049F00003D800008D2D002000D80000952E002047
:104A00000E3000004F2F002005D800000F2F00208F
:104A100003380000CF2F0020F049002001000000E3
:104A2000F849002001000000004A002002000000B8
:104A3000104A00200100000000000000E84A0020A9
:104A4000978000200600010001340000CD310020D5
:104A500000340000FB3100201034000059330020E6
:104A600000380000E33200200138000089320020C5
:104A7000033800000933002000C80000353300204F
:104A800013380000454000201538000093400020F6
:104A900017380000D5400020193800004D41002093
:104AA00001700000293E0020047000004F3F0020EC
:104AB00003DC00001D3D002001DC0000433D002020
:104AC00006DC0000473D002004D80000B94100206A
:104AD00002D80000E341002001D80000DF4100209F
:104AE00001C80000F3410020484A002014000000E3
:104AF0008C4B00200080002030010000284700205F
:104B00008C4B002020900020D0000000284700207F
:104B100068070800202A0800E00500002847002058
:104B2000800C0000100000B85C49D204A34071A0C2
:104B3000B535853EB08307040000BA5C49D204A3B2
:104B40004071A0B535853EB08307160000B95C49B9
:104B5000D204A34071A0B535853EB083070A00009A
:104B6000101112131415161718191A1B1C1D1E1FCD
:104B7000120000202122232425262728292A2B2C35
:0C4B80002D2E2F313233343536373800FB
:040000052000044192
:00000001FF
